:100000000C943E010C946F010C946F010C946F01E1
:100010000C946F010C946F010C946F010C946F01A0
:100020000C946F010C946F010C946F010C946F0190
:100030000C946F010C946F010C946F010C946F0180
:100040000C946F010C946F010C946F010C946F0170
:100050000C946F010C946F010C946F010C94BD040F
:100060000C946F010C9491050C9467050C946F012E
:100070000C946F010C946F010C946F010C946F0140
:100080000C946F010C946F010C946F010C946F0130
:100090000C9431050C9407050C946F010C946F01BE
:1000A0000C946F010C946F010C946F010C946F0110
:1000B0000C946F010C946F010C946F010C946F0100
:1000C0000C946F010C946F010C946F010C946F01F0
:1000D0000C946F010C946F010C946F010C946F01E0
:1000E0000C946F010C94E8080C9491030C94C705D0
:1000F0000C9482030C9489020C9453020C94840295
:100100000C9452030C9476020C945E020C94A5039A
:100110000C945B020C944A030C947C020C94B30381
:100120000C9464020C9449020C944F020C944E03FC
:100130000C9472020C9468020C9457020C948E0278
:100140000C9442040C948A020C946E020C94550395
:100150000C94F5030C948002000021002400270079
:100160002A002D00300033000101000004010701C6
:100170000A0100002200250028002B002E0031007B
:10018000340002010000050108010B0100002000FD
:100190002300260029002C002F003200000100005F
:1001A00003010601090105050505070508080808FA
:1001B000020202020A0A08080404040401010101FF
:1001C00001010101030303030303030304070707FA
:1001D0000C0C0C0C0C0C0C0C02020202060606069F
:1001E000060606060B0B0B0B0B0B0B0B010210206C
:1001F000200808102040102040800201020108045D
:1002000002010102040810204080804020100804F0
:100210000201800402018040201008040201080449
:10022000020101020408102040800102040810208D
:10023000408000000A0B02090C0D0E0807030401A0
:1002400000000000000000000000000000000000AE
:10025000000000000000000000000000000012117B
:10026000100000000000000000000000000000007E
:100270000000000000000000C705E80811241FBEB0
:10028000CFEFD1E2DEBFCDBF00E00CBF23E0AEE395
:10029000B2E001C01D92AA3FB207E1F712E0A0E070
:1002A000B2E0E2E4F6E100E00BBF02C007900D927D
:1002B000AE33B107D9F711E0CDE3D1E000E006C0DD
:1002C00021970109802FFE010E94F108CC33D1074C
:1002D00080E00807A9F70E94C1060C940F0B0C944C
:1002E0000000FC01A089B18982E08C93A485B585CA
:1002F0001C92A685B7858FEC8C93108EA489B58946
:1003000086E08C93A289B3898C9180618C93A289B9
:10031000B3898C9188608C93A289B3898C91806811
:100320008C930288F389E02D80818F7D80830895EE
:1003300096E0899FD0011124A957BC4F90967C93D9
:100340006E935F9791E091969C939197E091F4035F
:10035000F091F5039091F303992339F0309751F020
:10036000811108C08091A3031994309719F05C960D
:100370008C91FACF0895CF92DF92EF92FF920F9374
:100380001F9396E0899FF0011124E957FC4F11A2B9
:10039000278D30A12130310551F178F0223031051F
:1003A00009F451C02330310509F452C01F910F9157
:1003B000FF90EF90DF90CF9008956623B9F361E04E
:1003C00070E00E9498012FB7F894809143029091B9
:1003D0004402A0914502B09146022FBF8093DF03F3
:1003E0009093E003A093E103B093E203DFCF9FB7C4
:1003F000F894C0904302D0904402E0904502F090FF
:1004000046029FBF0091DF031091E0032091E103BA
:100410003091E203C01AD10AE20AF30A0091F10313
:100420001091F20330E020E00C151D052E053F056C
:1004300050F462E070E01F910F91FF90EF90DF9019
:10044000CF900C9498016111B1CF63E070E0F3CFCD
:1004500070E060E0F0CF8150823108F05AC0E82FA0
:10046000F0E08827E95CFD4F8F4F0C94F1085702AC
:100470005B0249024F02530289025E026402680273
:100480006E02720276027C028002890284028A0273
:100490008E02809180008F778093800008958091F4
:1004A00080008F7DF9CF80918000877FF5CF84B564
:1004B0008F7784BD089584B58F7DFBCF8091B00088
:1004C0008F778093B00008958091B0008F7DF9CF31
:1004D000809190008F778093900008958091900094
:1004E0008F7DF9CF80919000877FF5CF8091A0001C
:1004F0008F778093A00008958091A0008F7DF9CF21
:100500008091A000877FF5CF809120018F77809325
:1005100020010895809120018F7DF9CF80912001E5
:10052000877FF5CFCF93DF93282F30E0F901EE5C82
:10053000FD4F8491F901E451FE4FD491F901EA5540
:10054000FE4FC491CC23A1F081110E942B02EC2F0D
:10055000F0E0EE0FFF1FE457FE4FA591B491EC9130
:10056000ED2381E090E009F480E0DF91CF910895E0
:1005700080E090E0FACF1F93CF93DF93282F30E0F5
:10058000F901EE5CFD4F8491F901E451FE4FD491E5
:10059000F901EA55FE4FC491CC23A9F0162F811121
:1005A0000E942B02EC2FF0E0EE0FFF1FEE58FE4FE3
:1005B000A591B4918FB7F894EC91111108C0D09522
:1005C000DE23DC938FBFDF91CF911F910895DE2B47
:1005D000F8CFCF93DF9390E0FC01E451FE4F2491DC
:1005E0008A559E4FFC0184918823C9F090E0880FC2
:1005F000991FFC01E85AFE4FA591B491FC01EE58F9
:10060000FE4FC591D49161110DC09FB7F8948C91A4
:10061000209582238C938881282328839FBFDF9194
:10062000CF910895623051F49FB7F8943C91822F96
:10063000809583238C93E8812E2BEFCF8FB7F8948E
:10064000EC912E2B2C938FBFEACF3FB7F89480917B
:100650003F0290914002A0914102B091420226B522
:10066000A89B05C02F3F19F00196A11DB11D3FBFEA
:10067000BA2FA92F982F8827BC01CD01620F711DB9
:10068000811D911D42E0660F771F881F991F4A95B3
:10069000D1F70895862F642F0C94E902862F642FDA
:1006A0000C94BB02862F0C949202AF92BF92CF9211
:1006B000DF92EF92FF920F931F93CF93DF936C0122
:1006C0007B018B01040F151FEB015E01AE18BF0803
:1006D000C017D10759F06991D601ED91FC910190B5
:1006E000F081E02DC6011995892B79F7C501DF91BD
:1006F000CF911F910F91FF90EF90DF90CF90BF901F
:10070000AF900895FC01538D448D252F30E0842F48
:1007100090E0821B930B541710F0CF960895019729
:100720000895FC01918D828D981761F0A28DAE0F16
:10073000BF2FB11D5D968C91928D9F5F9F73928F9D
:1007400090E008958FEF9FEF0895FC01918D828DC9
:10075000981731F0828DE80FF11D858D90E0089596
:100760008FEF9FEF0895FC01918D228D892F90E0EE
:10077000805C9F4F821B91098F739927089587E4AE
:1007800092E00E94B30321E0892B09F420E0822F3C
:10079000089584EE92E00E94B30321E0892B09F4CE
:1007A00020E0822F0895FC01A48DA80FB92FB11D60
:1007B000A35ABF4F2C91848D90E001968F73992797
:1007C000848FA689B7892C93A089B1898C91837075
:1007D00080648C93938D848D981306C00288F3896E
:1007E000E02D80818F7D80830895EF92FF920F939B
:1007F0001F93CF93DF93EC0181E0888F9B8D8C8DCD
:1008000098131AC0E889F989808185FF15C09FB7C0
:10081000F894EE89FF896083E889F9898081837083
:10082000806480839FBF81E090E0DF91CF911F9132
:100830000F91FF90EF900895F62E0B8D10E00F5F53
:100840001F4F0F731127E02E8C8D8E110CC00FB629
:1008500007FCFACFE889F989808185FFF5CFCE01C1
:100860000E94D303F1CFEB8DEC0FFD2FF11DE35A66
:10087000FF4FF0829FB7F8940B8FEA89FB89808144
:100880008062CFCFCF93DF93EC01888D8823B9F0BE
:10089000AA89BB89E889F9898C9185FD03C080818B
:1008A00086FD0DC00FB607FCF7CF8C9185FFF2CF08
:1008B000808185FFEDCFCE010E94D303E9CFDF9188
:1008C000CF91089580E090E0892B29F00E94C90320
:1008D00081110E94000080E090E0892B29F00E94A5
:1008E000BF0381110E94000080E090E0892B49F055
:1008F00080E090E0892B29F00E94000081110E9485
:10090000000080E090E0892B49F080E090E0892BA6
:1009100029F00E94000081110C9400000895CF93EB
:10092000DF93EC018091810390918203009759F04D
:1009300020918303309184032C173D0720F081E040
:10094000DF91CF910895BE016F5F7F4F0E941E0A15
:10095000009789F09093820380938103D09384035E
:10096000C09383032091850330918603232B39F7AD
:10097000FC011082E4CF80E0E3CF1F920F920FB60C
:100980000F9211242F933F938F939F93AF93BF9315
:100990008091430290914402A0914502B091460299
:1009A00030913E0223E0230F2D3758F50196A11D0B
:1009B000B11D20933E028093430290934402A09382
:1009C0004502B093460280913F0290914002A0916F
:1009D0004102B09142020196A11DB11D80933F02D8
:1009E00090934002A0934102B0934202BF91AF9115
:1009F0009F918F913F912F910F900FBE0F901F905D
:100A0000189526E8230F0296A11DB11DD2CF1F9283
:100A10000F920FB60F9211240BB60F922F933F93A4
:100A20004F935F936F937F938F939F93AF93BF93F6
:100A3000EF93FF9387E492E00E94D303FF91EF913D
:100A4000BF91AF919F918F917F916F915F914F91E6
:100A50003F912F910F900BBE0F900FBE0F901F90E4
:100A600018951F920F920FB60F9211240BB60F928A
:100A70002F938F939F93EF93FF93E0915702F09101
:100A800058028081E0915D02F0915E0282FD1DC0FE
:100A90009081809160028F5F8F7320916102821735
:100AA00041F0E0916002F0E0E95BFD4F958F8093AB
:100AB0006002FF91EF919F918F912F910F900BBE4C
:100AC0000F900FBE0F901F9018958081F2CF1F924C
:100AD0000F920FB60F9211240BB60F922F933F93E4
:100AE0004F935F936F937F938F939F93AF93BF9336
:100AF000EF93FF9384EE92E00E94D303FF91EF9176
:100B0000BF91AF919F918F917F916F915F914F9125
:100B10003F912F910F900BBE0F900FBE0F901F9023
:100B200018951F920F920FB60F9211240BB60F92C9
:100B30002F938F939F93EF93FF93E091F402F091A3
:100B4000F5028081E091FA02F091FB0282FD1DC066
:100B500090818091FD028F5F8F732091FE0282173A
:100B600041F0E091FD02F0E0EC51FD4F958F809354
:100B7000FD02FF91EF919F918F912F910F900BBEEE
:100B80000F900FBE0F901F9018958081F2CF10929A
:100B90004A021092490248EE53E060E070E0409350
:100BA0004B0250934C0260934D0270934E0282E2CE
:100BB00092E090934802809347022DEC30E030930E
:100BC0005402209353022CEC30E0309356022093D1
:100BD000550228EC30E0309358022093570229EC5C
:100BE00030E030935A02209359022AEC30E03093DF
:100BF0005C0220935B022EEC30E030935E02209387
:100C00005D021092600210926102109262021092D4
:100C100063021092E7021092E6024093E8025093BA
:100C2000E9026093EA027093EB029093E5028093ED
:100C3000E40285EC90E09093F1028093F00284EC62
:100C400090E09093F3028093F20280EC90E0909316
:100C5000F5028093F40281EC90E09093F702809388
:100C6000F60282EC90E09093F9028093F80286EC11
:100C700090E09093FB028093FA021092FD02109292
:100C8000FE021092FF02109200031092890310924C
:100C90008D0310928C0310928E0384E392E0909364
:100CA000880380938703E3EAF3E0108214821382BF
:100CB0001582369683E0EF3DF807B9F784E092E0BD
:100CC0009093EA038093E90380E092E09093EC0331
:100CD0008093EB0384E08093ED038093EE0388E040
:100CE00092E09093E8038093E7038AE090E090938A
:100CF000F0038093EF0384EF91E09093F2038093ED
:100D0000F1031092F5031092F4031092E303109292
:100D1000E4031092E5031092E6031092F30310929D
:100D20008203109281031092840310928303109225
:100D300086031092850390E080E00E948F0420914A
:100D4000810330918203811113C02115310519F0FF
:100D5000C9010E949509109282031092810310929A
:100D600086031092850310928403109283030895E2
:100D700010928603109285036CE372E0C9010C9413
:100D8000080BCF93DF931F921F92CDB7DEB77894F5
:100D900084B5826084BD84B5816084BD85B5826080
:100DA00085BD85B5816085BD80916E008160809331
:100DB0006E0010928100809181008260809381009A
:100DC00080918100816080938100809180008160AA
:100DD000809380008091B10084608093B100809105
:100DE000B00081608093B000809191008260809318
:100DF000910080919100816080939100809190009A
:100E00008160809390008091A10082608093A10016
:100E10008091A10081608093A1008091A0008160F9
:100E20008093A000809121018260809321018091B4
:100E30002101816080932101809120018160809354
:100E4000200180917A00846080937A0080917A00FA
:100E5000826080937A0080917A00816080937A002A
:100E600080917A00806880937A001092C10084EEAD
:100E700092E00E94710187E492E00E947101412C8E
:100E8000512C3201439421E02093F3038FB7F8945F
:100E90004091430250914402609145027091460294
:100EA0008FBF8091E3039091E403A091E503B0919B
:100EB000E603481B590B6A0B7B0B8091EF03909163
:100EC000F003B0E0A0E084179507A607B70708F085
:100ED00017C110E08091ED03181760F4E091E90369
:100EE000F091EA03E10FF11D62E080810E94E902C6
:100EF0001F5FF0CF312C8091EE03381608F061C0EF
:100F0000E32CF12CE091EB03F091EC03EE0DFF1DCF
:100F100061E080810E94E902E091EB03F091EC0333
:100F2000EE0DFF1D60E080810E94BB02D301C20173
:100F3000032C04C0880F991FAA1FBB1F0A94D2F765
:100F40004C016C01C094D094212C8091ED032816A3
:100F500008F5022D10E0E091E903F091EA03E00FBB
:100F6000F11F80810E9492020C5F1F4F000F111F22
:100F7000F801E957FC4F892B41F480819181882940
:100F80009929918380832394E0CF808191818C2162
:100F90009D21F7CFE091EB03F091EC03EE0DFF1DE7
:100FA00061E080810E94BB028091EB039091EC0391
:100FB000E80EF91E60E0F70180810E94E902339497
:100FC0009ACF07E813E07801F701878D90A1892B6C
:100FD00031F4148E8FEF9FEF968F858F11A296E0DC
:100FE000E90EF11CE3ECEE16E3E0FE0669F7912C46
:100FF0008091ED03981608F053C0812CC92CD12C98
:10100000CC0CDD1CC60181579C4F6C012091EE0376
:10101000821608F043C0F60160817181082C02C07D
:10102000769567950A94E2F7929E90011124280D17
:10103000311DE7E8F3E080E0458D568D2417350734
:1010400009F4C4C08F5F36968A30B1F760FF24C0C0
:10105000E7E8F3E090E080E0448D411118C0E091B2
:10106000E703F091E803E20FF31F408156E0589F39
:10107000F001599FF00D1124E957FC4F448F368F32
:10108000258F10A2178E61E00E94BB0105C001965A
:1010900036968A30910501F78394B8CF9394A8CF00
:1010A00080E0F80191A19111892F0A5F1F4FE0168E
:1010B000F106B9F79FB7F89440914302509144026A
:1010C00060914502709146029FBF4093E3035093A5
:1010D000E4036093E5037093E603882389F080912D
:1010E000A803882369F08091A6039091A703019734
:1010F00039F41091A303111106C00E946204C3CEFB
:101100001092F303FACF1332D1F540918503509139
:101110008603609181037091820384EE92E00E94C5
:10112000550342E050E06AE372E084EE92E00E94F0
:1011300055030E9425034B015C0188E8C82E83E11A
:10114000D82EE12CF12C0E942503681979098A090F
:101150009B09683E734081059105A8F3F1E0CF1A21
:10116000D108E108F10828EE820E23E0921EA11CAE
:10117000B11CC114D104E104F10429F7BECF612FE1
:1011800087E492E00E94F50319831A820091850397
:10119000109186030F5F1F4FC8010E948F048823A0
:1011A00009F4ABCF209181033091820380918503B4
:1011B00090918603BE016F5F7F4F820F931F0E9445
:1011C000080B109386030093850397CF61705CCF63
:1011D0008091810390918203009711F00C949509FE
:1011E0000895EE0FFF1F881F8BBF0790F691E02D2B
:1011F00019940F931F93CF93DF938230910510F4CE
:1012000082E090E0E091F803F091F90330E020E013
:10121000B0E0A0E0309799F42115310509F44AC0F7
:10122000281B390B24303105D8F58A819B81611543
:10123000710589F1FB0193838283FE0111C0408116
:1012400051810281138148175907E0F04817590767
:1012500099F4109761F012960C93129713961C93C1
:101260003296CF01DF91CF911F910F910895009396
:10127000F8031093F903F4CF2115310551F042170B
:10128000530738F0A901DB019A01BD01DF01F80124
:10129000C1CFEF01F9CF9093F9038093F803CDCF3D
:1012A000FE01E20FF31F819391932250310939839C
:1012B0002883D7CF2091F6033091F703232B41F4F5
:1012C00020911A0230911B023093F7032093F6030A
:1012D00020911802309119022115310541F42DB7E2
:1012E0003EB740911C0250911D02241B350BE0912A
:1012F000F603F091F703E217F307A0F42E1B3F0B60
:101300002817390778F0AC014E5F5F4F2417350777
:1013100048F04E0F5F1F5093F7034093F6038193FD
:1013200091939FCFF0E0E0E09CCFCF93DF930097C5
:10133000E9F0FC01329713821282A091F803B09178
:10134000F903ED0130E020E01097A1F42081318114
:10135000820F931F2091F6033091F7032817390766
:1013600009F061C0F093F703E093F603DF91CF91AA
:101370000895EA01CE17DF07E8F54A815B819E01F7
:1013800041155105B1F7E901FB83EA834991599170
:10139000C40FD51FEC17FD0761F48081918102967F
:1013A000840F951FE90199838883828193819B83B0
:1013B0008A83F0E0E0E012968D919C91139700975C
:1013C000B9F52D913C911197CD010296820F931F93
:1013D0002091F6033091F7032817390739F6309733
:1013E00051F51092F9031092F803B093F703A0930C
:1013F000F603BCCFD383C28340815181840F951FF4
:10140000C817D90761F44E5F5F4F88819981480FF3
:10141000591F518340838A819B8193838283211545
:10142000310509F0B0CFF093F903E093F8039ECFB4
:10143000FD01DC01C0CF13821282D7CF4F925F92A1
:101440006F927F928F929F92AF92BF92CF92DF92D4
:10145000EF92FF920F931F93CF93DF938C0100972E
:1014600099F4CB01DF91CF911F910F91FF90EF90F5
:10147000DF90CF90BF90AF909F908F907F906F90B4
:101480005F904F900C94F908FC01E60FF71F9C0148
:1014900022503109E217F30708F4AEC0D901CD910B
:1014A000DC911197C617D70720F1C530D10578F028
:1014B000CE0104978617970750F0C61BD70B2297CB
:1014C000C193D1936D937C93CF010E949509C8017C
:1014D000DF91CF911F910F91FF90EF90DF90CF9010
:1014E000BF90AF909F908F907F906F905F904F9044
:1014F00008955B01AC1ABD0A4C018C0E9D1EA09193
:10150000F803B091F903512C412CF12CE12C1097E8
:1015100031F58091F6039091F7038815990509F04C
:101520005CC04616570608F058C08091180290918A
:101530001902009741F48DB79EB740911C0250915B
:101540001D02841B950BE817F90708F055C0F093AE
:10155000F703E093F603F90171836083B8CF8D91AF
:101560009C91119712966C90129713967C901397FA
:10157000A815B90559F56C0142E0C40ED11CCA1476
:10158000DB0420F1AC014A195B09DA0112961597C8
:1015900080F06282738251834083D9016D937C9382
:1015A000E114F10471F0D7011396FC93EE931297B6
:1015B0008ECF22968C0F9D1FF90191838083F301BA
:1015C000EFCFF093F903E093F80381CF4816590663
:1015D00008F42C017D01D3019ACFCB010E94F908B8
:1015E0007C01009749F0AE01B8010E94FF0AC801D2
:1015F0000E94950987016BCF10E000E068CFFB01E6
:10160000DC0102C001900D9241505040D8F708957E
:10161000FB01DC0101900D920020E1F7089511E03B
:10162000CDE3D1E000E006C0802FFE010E94F1086A
:101630002196011DCE33D10780E00807A9F7F89461
:02164000FFCFDA
:10164200191817161D1C1B1A3738392F3435362A2C
:101652003132332D23303D2B0000FA03800000008D
:101662000000F503550382034204B3039103A5036B
:0E167200000000004A034E0352030D0A000060
:00000001FF
