:020000040000FA
:100000000C9466020C9497020C9497020C9497023D
:100010000C9497020C9497020C9497020C949702FC
:100020000C9497020C9497020C9497020C949702EC
:100030000C9497020C9497020C9497020C949702DC
:100040000C9497020C9497020C9497020C949702CC
:100050000C9497020C9497020C9497020C94DF1066
:100060000C9497020C94B3110C9489110C94970280
:100070000C9497020C9497020C9497020C9497029C
:100080000C9497020C9497020C9497020C9497028C
:100090000C9453110C9429110C9497020C94970210
:1000A0000C9497020C9497020C9497020C9497026C
:1000B0000C9497020C9497020C9497020C9497025C
:1000C0000C9497020C9497020C9497020C9497024C
:1000D0000C9497020C9497020C9497020C9497023C
:1000E0000C949702036EDB363D9A9999993DABAA21
:1000F000AA2A3E000000803F084AD73B3BCE016E53
:1001000084BCBFFDC12F3D6C74319ABD56833DDA6E
:100110003D00C77F11BED9E4BB4C3E916BAAAABE7D
:10012000000000803F07634236B79BD8A71A3968A2
:100130005618AEBAAB558C1D3CB7CC5763BD6DEDB0
:10014000FD753EF6177231BF000000803F072C7A24
:10015000A5BA6CC590DA3B9365FC8BBC53F810FDD7
:100160003C5692834DBD879D3AB63DCBC9BF5BBE21
:1001700073DA0FC93F05A84CCDB2D44EB93836A9B1
:10018000020C50B9918688083CA6AAAA2ABE000093
:1001900000803F08000000BE922449123EABAAAA8C
:1001A0002ABECDCCCC4C3E00000080BEABAAAAAA91
:1001B0003E00000000BF000000803F000000000083
:1001C000084178D3BB4387D1133D190E3CC3BD42D0
:1001D00082AD2B3E68EC8276BED98FE1A93E4C8081
:1001E000EFFFBE01C4FF7F3F0000000000028988CE
:1001F000083CABAAAA2A3E000000803F028988087A
:100200003EABAAAAAABE000000803F0664EC1B3CDD
:1002100004BC163E3BE5B93CC93C37C29E5A3D661C
:100220000498083EEA69AAAA3E000000803F0C94A8
:100230001D060C94800B0C94700B0C94DB190C9421
:10024000D20E0C9446060C9463060C944D030C9449
:10025000190A0C9465040C9487070C94860B0C9473
:100260003B030C9457030C942E030C94CE1C0C945B
:100270006C0B0C94561C0C94D21B0C9432030C94F3
:10028000D2180C947A0F0C9435030C9410070C942C
:10029000FE050C94680B0C94A7040C94AD070C9409
:1002A00051190C94F4030C94B9190C94DC0A0C94B5
:1002B000BB180C9421090C94461B0C9461030C94FC
:1002C00026030C9499080C9465030C94B60A0C94BC
:1002D0001D0F0C944D080C9445030C948C060C9443
:1002E0005B030C94F4040C9417180C9403040C9402
:1002F000FB080C9457040C9499170C9407090C9460
:1003000014030C9495140C94740B0C94561B0C94BD
:10031000720F0C9401090C9475180C94D70A0C9464
:10032000481C0C9449030C94A4180C940F030C94CF
:1003300009090C94F8080C94C7070C94B30E0C949C
:10034000C7030C9404090C94FE080C94DF0E0C9463
:100350009A1C0C94E9110C94E10A0C943F030C9440
:10036000221C0C947C0B0C94010F0C94E9070C9448
:1003700014080C9453030C9445180C942A030C9401
:10038000C6060C94780B4E414E494E495459494E7D
:1003900046CDCCCC3D0AD7233C17B7D13877CC2BF0
:1003A000329595E6241FB14F0A000020410000C895
:1003B0004200401C4620BCBE4CCA1B0E5AAEC59D16
:1003C0007400000A0B02090C0D0E0807030401005B
:1003D000000000000000000000000000000000001D
:1003E00000000000000000000000000000121110DA
:1003F00000000000000000000000000000000000FD
:100400000000000000000000002200250028002B52
:10041000002E003100340002010000050108010B2C
:100420000100002100240027002A002D00300033A5
:100430000001010000040107010A01050505050787
:100440000508080808020202020A0A08080404044F
:10045000040101010101010101030303030303037B
:1004600003040707070C0C0C0C0C0C0C0C0202020A
:100470000206060606060606060B0B0B0B0B0B0BFD
:100480000B0102102020080810204010204080029C
:1004900001020108040201010204081020408080CA
:1004A000402010080402018004020180402010084E
:1004B0000402010804020101020408102040800126
:1004C0000204081020408000E911951411241FBE79
:1004D000CFEFD1E2DEBFCDBF00E00CBF24E0A6E944
:1004E000B3E001C01D92AB3EB207E1F713E0A0E01C
:1004F000B2E0E0EEFFE300E00BBF02C007900D9218
:10050000A639B107D9F712E0C5E6D2E000E006C08F
:1005100021970109802FFE010E942C1DC436D107AE
:1005200080E00807A9F70E9459120C94DE1F0C9472
:100530000000FC01A089B18982E08C93A485B58577
:100540001C92A685B7858FEC8C93108EA489B589F3
:1005500086E08C93A289B3898C9180618C93A28967
:10056000B3898C9188608C93A289B3898C918068BF
:100570008C930288F389E02D80818F7D808308959C
:1005800090E0FC01EF57FB4F2491855C9B4FFC01F1
:100590008491882399F090E0880F991FFC01EF5D0A
:1005A000FB4FA591B491FC01E95FFB4F85919491BC
:1005B0008FB7F894EC91E22BEC938FBF0895282F1E
:1005C00030E0F901EF53FC4F9491F901EF57FB4FE5
:1005D0004491255C3B4FF9012491222309F435C055
:1005E000992311F191509231F8F4E92FF0E0882726
:1005F000E350FD4F8F4F0C942C1D2E0332030F033D
:1006000026032A03140335033B033F034503490331
:100610004D035303570314035B0361036503809188
:1006200080008F7780938000E22FF0E0EE0FFF1FB5
:10063000E95FFB4FA591B4918FB7F894EC916111EC
:1006400048C040954E234C938FBF08958091800001
:100650008F7DE8CF80918000877FE4CF84B58F774E
:1006600084BDE2CF84B58F7DFBCF8091B0008F77C2
:100670008093B000D9CF8091B0008F7DF9CF809169
:1006800090008F7780939000CFCF809190008F7DE6
:10069000F9CF80919000877FF5CF8091A0008F7770
:1006A0008093A000C1CF8091A0008F7DF9CF809171
:1006B000A000877FF5CF809120018F778093200164
:1006C000B3CF809120018F7DF9CF80912001877F6A
:1006D000F5CF4E2BB8CF3FB7F89480919703909108
:1006E0009803A0919903B0919A0326B5A89B05C0E1
:1006F0002F3F19F00196A11DB11D3FBFBA2FA92FA1
:10070000982F8827BC01CD01620F711D811D911D9D
:1007100042E0660F771F881F991F4A95D1F7089509
:100720008F929F92AF92BF92CF92DF92EF92FF9201
:100730000E946B034B015C0188E8C82E83E1D82E30
:10074000E12CF12C0E946B03681979098A099B0935
:10075000683E734081059105A8F321E0C21AD108D3
:10076000E108F10888EE880E83E0981EA11CB11CF8
:10077000C114D104E104F10429F7FF90EF90DF9058
:10078000CF90BF90AF909F908F9008950895AF92B3
:10079000BF92CF92DF92EF92FF920F931F93CF936E
:1007A000DF936C017B018B01040F151FEB015E01D0
:1007B000AE18BF08C017D10759F06991D601ED9165
:1007C000FC910190F081E02DC6011995892B79F7F4
:1007D000C501DF91CF911F910F91FF90EF90DF90B6
:1007E000CF90BF90AF900895FC01538D448D252F7D
:1007F00030E0842F90E0821B930B541710F0CF96BB
:10080000089501970895FC01918D828D981761F0EC
:10081000A28DAE0FBF2FB11D5D968C91928D9F5F03
:100820009F73928F90E008958FEF9FEF08952FB7F9
:10083000F89480919B0390919C03A0919D03B091AB
:100840009E032FBF8093440490934504A0934604D5
:10085000B09347048CE394E00E94030497FF26C002
:100860002FB7F89480919B0390919C03A0919D03D6
:10087000B0919E032FBF4091440450914504609174
:10088000460470914704841B950BA60BB70B40914F
:1008900040045091410460914204709143048417D4
:1008A0009507A607B707B0F28FEF9FEF0895FC01F9
:1008B000918D828D981731F0828DE80FF11D858D15
:1008C00090E008958FEF9FEF0895FC01918D228DA8
:1008D000892F90E0805C9F4F821B91098F7399272D
:1008E00008958FE993E00E94650421E0892B09F4C3
:1008F00020E0822F08958CE394E00E94650421E0BB
:10090000892B09F420E0822F0895FC01A48DA80F03
:10091000B92FB11DA35ABF4F2C91848D90E0019641
:100920008F739927848FA689B7892C93A089B18961
:100930008C91837080648C93938D848D981306C002
:100940000288F389E02D80818F7D80830895EF9266
:10095000FF920F931F93CF93DF93EC0181E0888F79
:100960009B8D8C8D98131AC0E889F989808185FF49
:1009700015C09FB7F894EE89FF896083E889F989EB
:1009800080818370806480839FBF81E090E0DF91ED
:10099000CF911F910F91FF90EF900895F62E0B8D40
:1009A00010E00F5F1F4F0F731127E02E8C8D8E11FB
:1009B0000CC00FB607FCFACFE889F989808185FF62
:1009C000F5CFCE010E948504F1CFEB8DEC0FFD2F0A
:1009D000F11DE35AFF4FF0829FB7F8940B8FEA891D
:1009E000FB8980818062CFCFCF93DF93EC01888D2C
:1009F0008823B9F0AA89BB89E889F9898C9185FD9A
:100A000003C0808186FD0DC00FB607FCF7CF8C9127
:100A100085FFF2CF808185FFEDCFCE010E94850456
:100A2000E9CFDF91CF91089580E090E0892B29F004
:100A30000E947B0481110E94000080E090E0892BDD
:100A400029F00E94710481110E94000080E090E072
:100A5000892B49F080E090E0892B29F00E9400006A
:100A600081110E94000080E090E0892B49F080E035
:100A700090E0892B29F00E94000081110C94000065
:100A800008952F923F924F925F926F927F928F9232
:100A90009F92AF92BF92CF92DF92EF92FF920F930D
:100AA0001F93CF93DF93CDB7DEB72F970FB6F89490
:100AB000DEBF0FBECDBF0097A1F09F878E87DC0100
:100AC000ED91FC91CF018F7199278031910574F4DC
:100AD000883091050CF059C0009709F44CC001977B
:100AE00059F160E070E080EC9FE72CC04897CCF7AC
:100AF000AE85BF8512960D90BC91A02DBA83A983B7
:100B0000CF0188719927892B09F4E2C1E770FF278B
:100B10003197E730F10508F0DBC1AE85BF85882746
:100B2000EB56FA4F8F4F0C942C1D8707AD07C70764
:100B3000E90714084D089908EE85FF8562817381E5
:100B4000848195812F960FB6F894DEBF0FBECDBF7E
:100B5000DF91CF911F910F91FF90EF90DF90CF9099
:100B6000BF90AF909F908F907F906F905F904F90CD
:100B70003F902F900895AE85BF851296ED91FC9120
:100B80006081718182819381DDCFAE85BF851296B0
:100B90002D903C90CF0188719927892BA9F0E7709F
:100BA000FF273197E730F10578F4AE85BF858827B8
:100BB000E352FA4F8F4F0C942C1DFE051D0646067E
:100BC00063068C06C6061007F1012F960FB6F8943F
:100BD000DEBF0FBECDBFDF91CF911F910F91FF9070
:100BE000EF90DF90CF90BF90AF909F908F907F90CD
:100BF0006F905F904F903F902F90199416968D9123
:100C00009C910E944105F1012F960FB6F894DEBF2A
:100C10000FBECDBFDF91CF911F910F91FF90EF904D
:100C2000DF90CF90BF90AF909F908F907F906F900C
:100C30005F904F903F902F90199418968D919C91B2
:100C40000E9441056B017C01EE85FF8586819781BD
:100C50000E944105A7019601F1012F960FB6F89465
:100C6000DEBF0FBECDBFDF91CF911F910F91FF90DF
:100C7000EF90DF90CF90BF90AF909F908F907F903C
:100C80006F905F904F903F902F9019941A968D918E
:100C90009C910E9441056B017C01EE85FF8580855A
:100CA00091850E9441054B015C01AE85BF8516967A
:100CB0008D919C910E94410587017601A5019401C7
:100CC000F10119953FCF1C968D919C910E94410591
:100CD0005B016C01EE85FF85828593850E9441054D
:100CE00069837A838B839C83AE85BF8518968D91AB
:100CF0009C910E9441052B013C01EE85FF85868178
:100D000097810E944105E980FA800B811C81A30133
:100D10009201F101199516CF1E968D919C910E941A
:100D200041057B018C01EE85FF85848595850E94B8
:100D300041055B016C01AE85BF851A968D919C9132
:100D40000E94410569837A838B839C83EE85FF85AE
:100D5000808591850E9441052B013C01AE85BF85B0
:100D600016968D919C910E9441051F930F93FF92BF
:100D7000EF92E980FA800B811C81A3019201F101BD
:100D800019950F900F900F900F90DCCE50968D918B
:100D90009C910E9441057B018C01EE85FF85868533
:100DA00097850E9441056D8379874C01AE85BF858B
:100DB0001C968D919C910E9441055B016C01EE8512
:100DC000FF85828593850E94410569837A838B83A1
:100DD0009C83AE85BF8518968D919C910E9441059C
:100DE0002B013C01EE85FF85868197810E9441059C
:100DF0001F930F93FF92EF929F928F92F985FF932B
:100E00002D812F93E980FA800B811C81A30192012F
:100E1000F10119950FB6F894DEBF0FBECDBF92CE8B
:100E200052968D919C910E9441057B018C01EE852B
:100E3000FF85808991890E9441056D8379874C01E6
:100E4000AE85BF851E968D919C910E9441056A8753
:100E50007B878C879D87EE85FF85848595850E949D
:100E600041055B016C01AE85BF851A968D919C9101
:100E70000E94410569837A838B839C83EE85FF857D
:100E8000808591850E9441052B013C01AE85BF857F
:100E900016968D919C910E9441051F930F93FF928E
:100EA000EF929F928F92B985BF93ED81EF93FD856D
:100EB000FF932C852F933B853F93AA85AF93E980C1
:100EC000FA800B811C81A3019201F1011995A2CF37
:100ED000EE85FF8586819781E981FA812F960FB68D
:100EE000F894DEBF0FBECDBFDF91CF911F910F9160
:100EF000FF90EF90DF90CF90BF90AF909F908F903A
:100F00007F906F905F904F903F902F90199416961E
:100F10008D919C910E944105AB01BC01EE85FF853E
:100F200080859185E981FA812F960FB6F894DEBF0E
:100F30000FBECDBFDF91CF911F910F91FF90EF902A
:100F4000DF90CF90BF90AF909F908F907F906F90E9
:100F50005F904F903F902F90199418968D919C918F
:100F60000E9441056B017C01EE85FF85868197819A
:100F70000E944105AB01BC0197018601AE85BF858A
:100F80001A968D919C91E981FA811995DBCD1A967B
:100F90008D919C910E9441056B017C01EE85FF853E
:100FA000808591850E9441054B015C01AE85BF851E
:100FB00016968D919C910E944105AB01BC01950153
:100FC0008401EE85FF8584859585E981FA811995EF
:100FD000B9CD1C968D919C910E9441054B015C01FD
:100FE000EE85FF85828593850E9441056B017C011A
:100FF000AE85BF8518968D919C910E9441052B016D
:101000003C01EE85FF85868197810E944105AB01F9
:10101000BC0193018201AE85BF851E968D919C9186
:10102000E981FA8119958ECD1E968D919C910E9431
:101030004105362E272E182F092FEE85FF85848532
:1010400095850E9441054B015C01AE85BF851A96CE
:101050008D919C910E9441056B017C01EE85FF857D
:10106000808591850E9441052B013C01AE85BF859D
:1010700016968D919C910E944105AB01BC010F9386
:101080001F932F923F9293018201EE85FF85808905
:101090009189E981FA81199574CE50968D919C9130
:1010A0000E944105762E672E8D839987EE85FF85F8
:1010B000868597850E9441056A877B87182F092FAF
:1010C000AE85BF851C968D919C910E9441054B0178
:1010D0005C01EE85FF85828593850E9441056B0149
:1010E0007C01AE85BF8518968D919C910E9441052B
:1010F0001B012C01EE85FF85868197810E944105A9
:10110000AB01BC01F985FF932D812F936F927F92E4
:101110000F931F933B853F938A858F9392018101A3
:10112000AE85BF8552968D919C91E981FA81199582
:1011300071CE52968D919C910E94410569877A8764
:101140008B879C87EE85FF85808991890E94410568
:10115000562E472E382E292EAE85BF851E968D9190
:101160009C910E944105762E672E182F092FEE853F
:10117000FF85848595850E9441054B015C01AE8504
:10118000BF851A968D919C910E9441056B017C014F
:10119000EE85FF85808591850E9441056D837E8364
:1011A0008F839887AE85BF8516968D919C910E94FE
:1011B0004105AB01BC01BC85BF93EB85EF93FA857C
:1011C000FF9329852F932F923F924F925F920F9317
:1011D0001F936F927F920D811E812F813885AE857E
:1011E000BF8554968D919C91E981FA81199512CE13
:1011F000CA01B90108950E94AB1708950E94AA1769
:1012000008950E94BE1608950E94D7180895905818
:101210000895CF92DF92EF92FF926B017C0120E064
:1012200030E0A9010E94581687FF04C0F7FAF09435
:10123000F7F8F094C701B601FF90EF90DF90CF90E0
:1012400008954F925F926F927F928F929F92AF928A
:10125000BF92CF92DF92EF92FF920F93CF93DF93E3
:10126000CDB7DEB764970FB6F894DEBF0FBECDBF23
:101270004B015C0169017A0120E030E0A9010E9484
:10128000581687FDCCC020E030E0A901C701B601A7
:101290000E94581687FDC3C0A7019601C501B4017D
:1012A0000E94581687FDBBC020E03FEF4FE757E490
:1012B000C501B4010E94FF1A18160CF4B5C020E055
:1012C0003FEF4FE757E4C701B6010E94FF1A181617
:1012D0000CF4AAC0C501B4010E948A192B01712C1B
:1012E000612CC701B6010E948A194B01B12CA12CB7
:1012F000D301C201B695A79597958795881599054D
:10130000AA05BB0540F4D301C20188199909AA09AD
:10131000BB094C015D0181E090E0A0E0B0E089876D
:101320009A87AB87BC87C12CD12C7601C394D3019B
:10133000C20188199909AA09BB09898B9A8BAB8BC1
:10134000BC8B8C149D04AE04BF04E0F469857A85DF
:101350008B859C850E945D1664960FB6F894DEBF5F
:101360000FBECDBFDF91CF910F91FF90EF90DF9037
:10137000CF90BF90AF909F908F907F906F905F9035
:101380004F90089549885A886B887C884C0C5D1C66
:101390006E1C7F1C1D861E861F86188A69857A85AD
:1013A0008B859C85A30192010E94341D00E20E945E
:1013B000611D29833A834B835C836D837E838F8396
:1013C000988789819A81AB81BC81892B8A2B8B2B51
:1013D00041F081E090E0A0E0B0E08D879E87AF878C
:1013E000B88B8D859E85AF85B889892B8A2B8B2BF1
:1013F000D9F429853A854B855C85C301B2010E94E9
:10140000FA1CA70196010E940A1D29873A874B877B
:101410005C879FEFC91AD90AE90AF90A92CF60E0FE
:1014200070E080EC9FE798CF60E070E080E89FE795
:1014300093CF4F925F926F927F928F929F92AF92D3
:10144000BF92CF92DF92EF92FF920F93CF93DF93F1
:10145000CDB7DEB72C970FB6F894DEBF0FBECDBF69
:101460006B017C0120E030E0A9010E94581687FD45
:1014700073C020E03FEF4FE757E4C701B6010E9479
:10148000FF1A18160CF46DC0C701B6010E948A1924
:10149000C12CD12C7601C394812C912C54018394BE
:1014A0009B0150E040E029873A874B875C8729857C
:1014B0003A854B855C852C153D054E055F05D0F4BE
:1014C000C501B4010E945D162C960FB6F894DEBFDC
:1014D0000FBECDBFDF91CF910F91FF90EF90DF90C6
:1014E000CF90BF90AF909F908F907F906F905F90C4
:1014F0004F900895412C512C3201C701B601A5012E
:1015000094010E94341D00E20E94611D29833A83E8
:101510004B835C836D837E838F83988789819A81D7
:10152000AB81BC81892B8A2B8B2B21F0412C512C38
:101530003201439445284628472899F4A50194018F
:10154000C701B6010E94FA1C4B015C019FEFC91A4A
:10155000D90AE90AF90AABCF60E070E080EC9FE7B6
:10156000B3CF60E070E080E89FE7AECF8F929F92AC
:10157000AF92BF92CF92DF92EF92FF9269017A0110
:101580000E9421094B015C01C701B6010E94190AA2
:101590009B01AC01C501B4010E94BE16FF90EF9003
:1015A000DF90CF90BF90AF909F908F90089564E5AB
:1015B00078EF8DE290E408956BED7FE089E490E4AC
:1015C00008950E94561B28E132E741E35FE30E9441
:1015D000D7180895FC0101900020E9F73197AF0179
:1015E000481B590BBC018FE993E00C94C703CF93C0
:1015F000DF93FC0144815581608171818FE993E023
:101600000E94C703EC0188EE92E00E94EA0A8C0F68
:101610009D1FDF91CF910895CF93DF930E94EA0A37
:10162000EC0188EE92E00E94EA0A8C0F9D1FDF9188
:10163000CF910895CF93DF93EC0188819981009732
:1016400011F00E94211E198218821D821C821B82A9
:101650001A82DF91CF910895FC01808191810097DA
:1016600011F00C94211E0895CF93DF93009741F061
:10167000EC010E94430BCE01DF91CF910C94211E0F
:10168000DF91CF910895CF93DF93009709F43EC087
:10169000DC01ED91FC91EF71FF273997EF30F105F7
:1016A00008F034C0EC018827E75AF44F8F4F0C94B0
:1016B0002C1D800B7C0B780B740B700B6C0B680B68
:1016C000860B800B7C0B780B740B700B6C0B680B10
:1016D0008A899B890E94340B888999890E94340BDE
:1016E0008E859F850E94340B8C859D850E94340BCE
:1016F0008A859B850E94340B888599850E94340BCE
:101700008E819F81DF91CF910C94340BDF91CF912B
:101710000895AF92BF92CF92DF92EF92FF920F9314
:101720001F93CF93DF93DC012D913C912230310543
:1017300048F125FF27C07901B8E1EB22FF24E1142D
:10174000F10421F07901E7E0EE22FF24EC018C01A5
:10175000D12CC12CAA24A394B12CCE14DF04E9F41B
:10176000AB2881F0CE010E9441056B017C01CE01C6
:101770000E94430B81E090E099838883CA82DB82D8
:10178000EC82FD82DF91CF911F910F91FF90EF903E
:10179000DF90CF90BF90AF900895D80116968D91AD
:1017A0009C910E94890BD8011696ED91FC91808145
:1017B0009181019711F0B12CA12CBFEFCB1ADB0A5C
:1017C0000E5F1F4FCACF0F931F93CF93DF93EC0190
:1017D00088819981009759F02A813B812617370724
:1017E00030F081E0DF91CF911F910F9108958B012F
:1017F0006F5F7F4F0E94AA1E009759F099838883DC
:101800001B830A832C813D81232B59F7FC01108215
:10181000E8CF80E0E7CFEF92FF920F931F93CF9333
:10182000DF93EC017B018A01BA010E94E30B811175
:101830000BC0CE010E941A0BCE01DF91CF911F91F8
:101840000F91FF90EF9008951D830C83B70188815D
:1018500099810E94BA1FF0CFCF92DF92EF92FF9250
:101860000F931F93CF93DF93EC016B017A0146171F
:10187000570720F48D2D6A01E62EF82E1982188262
:101880001B821A821D821C8250E040E06AEE72E0E8
:10189000CE010E940B0C0091E3041091E404C016E9
:1018A000D10640F5E016F10608F48701E091DF0467
:1018B000F091E004E00FF11FF08010826091DF04EE
:1018C0007091E0046C0D7D1D61157105E9F0FB015F
:1018D00001900020E9F73197AF01461B570BCE016D
:1018E0000E940B0C8091DF049091E004080F191FF7
:1018F000F801F082CE01DF91CF911F910F91FF90FF
:10190000EF90DF90CF900895CE010E941A0BEACF9E
:10191000CF93DF93EC01FB018617970749F06081B5
:1019200071816115710541F0448155810E940B0C54
:10193000CE01DF91CF9108950E941A0BF9CF2F921B
:101940003F924F925F926F927F928F929F92AF924F
:10195000BF92CF92DF92EF92FF920F931F93CF939C
:10196000DF9300D01F92CDB7DEB79C838B8388E1D5
:1019700090E0EB81FC81958384833296FA83E9833E
:1019800030E2432E512CEB81FC8162807380F301A5
:10199000808181111DC08AE190E0EB81FC819583FB
:1019A00084830F900F900F900F90DF91CF911F9134
:1019B0000F91FF90EF90DF90CF90BF90AF909F90EE
:1019C0008F907F906F905F904F903F902F900895F1
:1019D00090ED980F9A3010F08E3281F469817A81FF
:1019E000C3010E949D14EB81FC816683778380870D
:1019F00091874EE150E05583448370C0082E000C5F
:101A0000990B0E948E1F892B09F4C3C0EB81FC81C6
:101A100022803380F101D0800D2D0D2C000C110B94
:101A2000C8010E948E1F7C01892B09F05FC0005302
:101A300011090A30110508F459C0FFE5DF1609F451
:101A400055C026183708EB81FC81048515850115E2
:101A5000110531F0E684F784E114F10409F04EC079
:101A600028E1A22EB12C6501CE18DF08D594C794C9
:101A7000CE0CDF1C860193E0000F111F9A95E1F751
:101A80000A5F1D4FF80180809180A101B401C3015C
:101A90000E94C11F009709F04DC0F401E20DF31D33
:101AA0002081422F552741950CF45095CA012111F0
:101AB00041C00115110509F448C0F80124813581A0
:101AC000C9018F719927803191050CF046C088308B
:101AD00091050CF04BC0892B09F44DC0EB81FC81C2
:101AE00084819581489709F44ECF5BCF5FEF251A2B
:101AF000350AEB81FC813382228288CFF801C080D5
:101B0000D180A101B601C3010E94C11F892B31F40C
:101B1000F601E20DF31D8081882331F0085F1F4F2D
:101B2000F1E0EF1AF10898CF0115110531F6F12C0B
:101B3000E12C96CF181619065CF476015FEFE51AD2
:101B4000F50AAE14BF040CF08ECF49E150E084C01A
:101B5000560181E0A81AB108F4CF48970CF0BECF27
:101B600086819781EB81FC8193878287EB81FC8161
:101B70003583248306C04FE150E0EB81FC8155831F
:101B80004483F80182819381EB81FC819783868372
:101B9000A5CFC3010196EB81FC8193838283F3017E
:101BA0008081893209F456C094F48D3009F496CFBF
:101BB0002CF48950823008F491CFC7CF8532E1F1FF
:101BC000883209F440C0803209F0BFCF87CF8C3211
:101BD00009F445C074F48A32D1F08B3209F0B5CFE4
:101BE000EB81FC81558244824BEF58E0578346835A
:101BF00075CF8F3299F08E35C1F08D3209F0A5CFB7
:101C0000EB81FC81558244824EEF58E0EFCFEB81AF
:101C1000FC815582448241E059E0E8CFEB81FC81B0
:101C20005582448244E059E0E1CFEB81FC8155824A
:101C3000448242ED5BE1DACFEB81FC815582448244
:101C40008BED99E1A3CF8CE190E0EB81FC81958352
:101C5000848344CF4DE150E0EB81FC81CCCE4BE15D
:101C600050E0FACF8F929F92AF92BF92CF92DF92C5
:101C7000EF92FF920F931F93CF93DF938C016B0131
:101C80007C0188E1E822FF24E114F10421F07801CD
:101C9000E7E0EE22FF245701AA0CBB1CE80193E009
:101CA000D595C7959A95E1F7C270DD272696CA0D9E
:101CB000DB1DCE010E94851D4C01AE0170E060E08D
:101CC0000E949F1FEF2849F0C114D10431F0A501F3
:101CD000B601C40106960E94961FF4011183008389
:101CE00013821282C401DF91CF911F910F91FF9057
:101CF000EF90DF90CF90BF90AF909F908F9008951E
:101D0000AF92BF92CF92DF92EF92FF920F931F9309
:101D1000CF93DF93EC012C813D81F901EF71FF2717
:101D20003897E831F10508F0E5C08827E556F14F0E
:101D30008F4F0C942C1DDF0E010F1D0F1D0F1D0F5B
:101D40001D0F1D0F1D0FDF0E010F1D0F1D0F1D0F8E
:101D50001D0F1D0F1D0F7A0F7A0F7A0F7A0F720F5A
:101D60007A0FB30ED20E70E060E081E090E00E9446
:101D7000320E8C018E819F81A885B985F8018283FE
:101D80009383A483B583CE010E949F0CC801DF9189
:101D9000CF911F910F91FF90EF90DF90CF90BF9068
:101DA000AF90089570E060E090E080E00E94320E15
:101DB0008C018E819F81F80193838283E4CF70E050
:101DC00060E0C9010E94320E8C018E819F81F80172
:101DD000938382838C8184FF04C08A859B8597834B
:101DE0008683CE010E949F0C8C819D814C9771F659
:101DF000CE010E949F0C8C819D814D9709F069C096
:101E0000C2CF70E060E0C9010E94320E8C018E8169
:101E10009F81F801938382838C8184FF04C08A852B
:101E20009B8591878087CE010E949F0CCE010E94E6
:101E30008F0FF80197838683A9CF7901F8E1EF220C
:101E4000FF24E114F10421F0790187E0E822FF2466
:101E500070E060E0C9010E94320E8C018E819F818A
:101E6000F801938382838C8184FF0AC0F701339643
:101E7000EE0FFF1FE00FF11F8A859B859183808302
:101E8000CE010E949F0C8C819D814C9711F55801C9
:101E9000F6E0AF0EB11CD12CC12CCE14DF0471F0D2
:101EA000CE010E949F0CCE010E945D10F50181932E
:101EB00091935F018C819D814B9781F08C819D81F5
:101EC0004D9739F481E0E81AF108EC14FD0409F4A7
:101ED0005ACF89E190E09D838C8358CFFFEFCF1AD2
:101EE000DF0ADBCFCE010E949F0CCE010E94A21020
:101EF0008C0181CF70E060E090E080E00E94320EC3
:101F00008C0189E190E09D838C8380E090E0A0ECDF
:101F1000BFE7F80182839383A483B58337CFEF9221
:101F2000FF920F931F93CF93DF931F921F92CDB712
:101F3000DEB78C01EE24E394F12CF80184819581C5
:101F4000809779F0EA94EF28E1F4C8010E94800EAE
:101F50000F900F90DF91CF911F910F91FF90EF9015
:101F6000089586819781F8E08B3F9F0731F08E5F5F
:101F7000984041F7F194E194F108C8010E949F0C48
:101F8000DCCFC8010E94800E9A838983BE016F5FF7
:101F90007F4F89E290E00E94320E27E039E0FC0199
:101FA00033832283D5CFCF92DF92EF92FF920F93AC
:101FB0001F93CF93DF9300D01F92CDB7DEB78C0174
:101FC0000E948F0F7C01F80184819581809739F4FC
:101FD000C680D780F2EDCF16FBE1DF0671F0C701B6
:101FE0000F900F900F900F90DF91CF911F910F9155
:101FF000FF90EF90DF90CF900895C8010E949F0C52
:10200000FA82E982C8010E948F0F9C838B83BE01F4
:102010006F5F7F4F8AE290E00E94320E7C01FC01EC
:10202000D382C282D0CFCF92DF92EF92FF920F93F2
:102030001F93CF93DF9300D01F92CDB7DEB78C01F3
:102040000E94D30F7C01F80184819581809789F4E7
:10205000C680D780F1E0CF16F9E0DF06C1F084E05A
:10206000C81689E0D80699F0EBEDCE16E9E1DE0658
:1020700071F0C7010F900F900F900F90DF91CF91EB
:102080001F910F91FF90EF90DF90CF900895C801BE
:102090000E949F0CFA82E982C8010E94D30F9C83A0
:1020A0008B83BE016F5F7F4F8AE290E00E94320E09
:1020B0007C01FC01D382C282C6CFCF92DF92EF9225
:1020C000FF920F931F93CF93DF9300D01F92CDB752
:1020D000DEB78C010E9413107C01F8018481958188
:1020E000809761F4C680D780FBEFCF16F8E0DF065B
:1020F00099F08EEFC81688E0D80671F0C7010F90EE
:102100000F900F900F90DF91CF911F910F91FF9043
:10211000EF90DF90CF900895C8010E949F0CFA8243
:10212000E982C8010E9413109C838B83BE016F5FFC
:102130007F4F8AE290E00E94320E7C01FC01D38244
:10214000C282CBCFCF92DF92EF92FF920F931F9379
:10215000CF93DF9300D01F92CDB7DEB77C010E94F2
:102160005D108C0188EFC82E88E0D82EF70184819D
:1021700095814B9771F0C8010F900F900F900F90C1
:10218000DF91CF911F910F91FF90EF90DF90CF9053
:102190000895C7010E949F0C1A830983C7010E94FA
:1021A0005D109C838B83BE016F5F7F4F8AE290E05E
:1021B0000E94320E8C01FC01D382C282D7CF1F92C3
:1021C0000F920FB60F9211242F933F938F939F93EB
:1021D000AF93BF9380919B0390919C03A0919D032B
:1021E000B0919E033091960323E0230F2D3758F5CD
:1021F0000196A11DB11D2093960380939B0390939C
:102200009C03A0939D03B0939E03809197039091AC
:102210009803A0919903B0919A030196A11DB11D55
:102220008093970390939803A0939903B0939A0394
:10223000BF91AF919F918F913F912F910F900FBEC2
:102240000F901F90189526E8230F0296A11DB11D2F
:10225000D2CF1F920F920FB60F9211240BB60F928E
:102260002F933F934F935F936F937F938F939F939E
:10227000AF93BF93EF93FF938FE993E00E948504A0
:10228000FF91EF91BF91AF919F918F917F916F914E
:102290005F914F913F912F910F900BBE0F900FBE0A
:1022A0000F901F9018951F920F920FB60F92112446
:1022B0000BB60F922F938F939F93EF93FF93E09121
:1022C000AF03F091B0038081E091B503F091B603C4
:1022D00082FD1DC090818091B8038F5F8F73209124
:1022E000B903821741F0E091B803F0E0E156FC4FEA
:1022F000958F8093B803FF91EF919F918F912F91CC
:102300000F900BBE0F900FBE0F901F9018958081FD
:10231000F2CF1F920F920FB60F9211240BB60F92AD
:102320002F933F934F935F936F937F938F939F93DD
:10233000AF93BF93EF93FF938CE394E00E948504E7
:10234000FF91EF91BF91AF919F918F917F916F918D
:102350005F914F913F912F910F900BBE0F900FBE49
:102360000F901F9018951F920F920FB60F92112485
:102370000BB60F922F938F939F93EF93FF93E09160
:102380004C04F0914D048081E0915204F09153048B
:1023900082FD1DC09081809155048F5F8F732091C5
:1023A0005604821741F0E0915504F0E0E45CFB4FE5
:1023B000958F80935504FF91EF919F918F912F916D
:1023C0000F900BBE0F900FBE0F901F90189580813D
:1023D000F2CFEFE9F3E01382128248EE53E060E0BF
:1023E00070E044835583668377838AED92E091831E
:1023F00080832DEC30E0358724872CEC30E0378764
:10240000268728EC30E0318B208B29EC30E0338BB1
:10241000228B2AEC30E0358B248B2EEC30E0378B8E
:10242000268B118E128E138E148EECE3F4E0138241
:10243000128244835583668377839183808385ECFE
:1024400090E09587848784EC90E09787868780EC7E
:1024500090E0918B808B81EC90E0938B828B82EC6F
:1024600090E0958B848B86EC90E0978B868B118E19
:10247000128E138E148EEFEDF4E01182108213820F
:1024800012821582148250E040E06AEE72E0CF01C1
:102490000E940B0CE9EDF4E011821082138212828B
:1024A0001582148250E040E06AEE72E0CF010C9495
:1024B0000B0CCF93DF93CDB7DEB7AD970FB6F89483
:1024C000DEBF0FBECDBF789484B5826084BD84B575
:1024D000816084BD85B5826085BD85B5816085BD1F
:1024E00080916E00816080936E00109281008091D7
:1024F000810082608093810080918100816080935F
:102500008100809180008160809380008091B10083
:1025100084608093B1008091B00081608093B000AE
:102520008091910082608093910080919100816000
:1025300080939100809190008160809390008091C1
:10254000A10082608093A1008091A10081608093AE
:10255000A1008091A00081608093A0008091210162
:10256000826080932101809121018160809321010B
:102570008091200181608093200180917A008460A5
:1025800080937A0080917A00826080937A008091B3
:102590007A00816080937A0080917A0080688093CD
:1025A0007A001092C1008CE394E00E9499028FE9B6
:1025B00093E00E94990286E10E94C00287E10E9496
:1025C000C0022AE0822E912CA12CB12C60E086E181
:1025D0000E94DF0260E087E10E94DF0219A618A6D0
:1025E0001BA61AA61DA61CA650E040E06AEE72E0EB
:1025F000CE0188960E940B0C0E9417040CA51DA505
:1026000097FD19C089831A820F5F1F4FB801CE0151
:1026100088960E94E30B882379F328A539A58CA519
:102620009DA5BE016F5F7F4F820F931F0E94BA1F4F
:102630001DA70CA7E1CF012B09F4ECC088A599A533
:10264000FC012081222309F4E5C069EE72E00E94BA
:10265000B11F892B09F4DEC0CE0188960E94F70ACB
:10266000BE01685D7F4F8FED94E00E94880CE09082
:10267000E304F090E404E114F10409F4D4C00091FF
:10268000DF041091E0046DE370E0C8010E94A61F12
:10269000009709F4C8C09C01201B310B8901A801D7
:1026A00070E060E0CE0182960E942C0CB8016F5F52
:1026B0007F4FA701CE0101960E942C0C8091D90476
:1026C0009091DA04009709F4B3C069817A816115A9
:1026D000710509F4ABC04091DB045091DC042D81FD
:1026E0003E814217530708F4A1C00E94BA1F8D8192
:1026F0009E819093DE048093DD041E821D82CE01B4
:1027000001960E942C0BBE016E5D7F4F8FED94E011
:102710000E94880C8BEE92E00E940C0B8FED94E0EF
:102720000E94F70A88EF92E00E940C0B89ED94E07A
:102730000E94F70ACE0182960E942C0B1BA21AA2BD
:102740001DA21CA21FA21EA26FED74E0CE018296F4
:102750000E94880C0DB71EB7EEA0FFA0C70101961E
:10276000EDB7FEB7E81BF90B0FB6F894FEBF0FBE2E
:10277000EDBF2DB73EB72F5F3F4F6901892B71F039
:10278000F901E114F10449F06AA17BA1A701C90193
:102790000E94CF1FF601EE0DFF1D1082DC82CB825E
:1027A000DA82C9821E861D86188A1F86CE0101968E
:1027B0000E949F0CCE0101960E94A2107C018D8187
:1027C0009E814A9709F44BC0C7010E94340BCC2468
:1027D000CA94DC2C0FB6F8941EBF0FBE0DBFCE01FD
:1027E00082960E942C0B8091D9049091DA04009774
:1027F00009F44FC00E94FB15C616D70609F04DC05C
:1028000081E093E00E940C0B61E086E10E94DF0210
:102810000E9490030E949003CE0188960E942C0B88
:102820000E941405D3CE0FEF1FEF39CF0E94211E57
:1028300089819A819093DA048093D9048B819C8159
:102840009093DC048093DB048D819E819093DE0461
:102850008093DD041A8219821C821B824ECFC7012D
:102860000E94890B412C512C80EC682E8FE7782E2A
:10287000E114F10441F0C7010E9441052B013C0124
:10288000C7010E94340BC301B2010E9483196B017E
:10289000A1CF60E070E0CB01AFCF81E193E00E9477
:1028A000EA0A0D2C000CEE08FF08F7FE28C06DE2C6
:1028B0008FE993E00E94A70422273327A9012C194E
:1028C0003D094E095F0919A2CE0181967C01CA011A
:1028D000B901A50194010E940A1D605DF701629390
:1028E0007F01211531054105510589F7E114F104F6
:1028F00019F0C7010E94EA0A61E087E187CFA701CA
:10290000960119A2CE0181967C01CA01B901A501E7
:1029100094010E940A1D605DF70162937F012115F9
:1029200031054105510589F7E1CF89ED94E00E9419
:102930002C0B8FED94E00C942C0B8F929F92AF9206
:10294000BF92CF92DF92EF92FF920F931F93CF939C
:10295000DF935C017B016115710519F0DB018D933B
:102960009C9385010F5F1F4FF501D0818D2F90E063
:102970000E9422166C01892BB9F5DD32B9F50F5F83
:102980001F4FD5011196DC91C1E05801F1E0AF1A5B
:10299000B10843E050E06EE873E0C5010E942B16D9
:1029A000892B69F5680182E0C80ED11C45E050E032
:1029B00069E873E0C6010E942B16892B21F4680197
:1029C00097E0C90ED11CE114F10419F0D701CD92A2
:1029D000DC9260E070E080E89FEFC111FFC060E032
:1029E00070E080E89FE7FAC05801BBCFDB3229F4E2
:1029F00085010E5F1F4FF501D181C0E0C6CF43E0D6
:102A000050E066E873E0C5010E942B16892BE9F0BF
:102A1000F80110E000E020E030E0A9015F01B0ED36
:102A20008B2E8D0E89E08815C8F19C2E689491F844
:102A30008C2F8870C2FF16C0811102C00F5F1F4F1C
:102A40003196D501DC91C92DE9CFE114F10429F0CB
:102A50000E5F1F4FF7011183008360E070E080EC90
:102A60009FE7BCC0882311F001501109A5E0B0E038
:102A70000E947F179B01AC01220F331F441F551F7B
:102A8000280D311D411D511D283999E93907490784
:102A900099E15907A8F2C6609C2ED2CFAEEF8A12F8
:102AA00006C0C3FD3CC09C2E689493F8C9CFDF7D5F
:102AB000D534A9F580818D3239F4C061DF011296D9
:102AC000818162E070E006C0DF018B32C1F31196B4
:102AD00061E070E080535D01A61AB70A8A30F8F40D
:102AE000E0E8CE16ECE0DE065CF4B601660F771F78
:102AF000660F771FC60ED71ECC0CDD1CC80ED11C6E
:102B00005D01FFEFAF1ABF0A8C9180538A30A8F1A4
:102B1000C4FF03C0D194C194D1080C0D1D1DC1FF89
:102B200009C0E114F10431F081E0A81AB108D7011D
:102B3000AD92BC92CA01B9010E945D16C370C33048
:102B400009F490584B015C0120E030E0A9010E949B
:102B50005816882309F440C0CDEBD3E017FF05C019
:102B6000119501951109C5EAD3E06E01B8E1CB1AC0
:102B7000D10880E2E82EF12C0FC0D501B1CFFE01C3
:102B800025913591459154910E191F09C501B40144
:102B90000E94BE164B015C01D501C4010E151F0534
:102BA00074F72497F594E794CC16DD06A9F78A2FDD
:102BB000880F8B2F881F8F3F49F020E030E0A9015C
:102BC000C501B4010E945816811106C082E290E04E
:102BD0009093E6048093E504C501B401DF91CF91A1
:102BE0001F910F91FF90EF90DF90CF90BF90AF902B
:102BF0009F908F9008951F93FC0199278827BC010F
:102C0000E89411911032E9F3193010F01E30C8F336
:102C10001B3251F01D3249F4689406C00E944316DD
:102C2000610F711D811D911D119110531A30B0F368
:102C30003EF490958095709561957F4F8F4F9F4F93
:102C40001F91089591110C942B17803219F089501F
:102C50008550C8F70895FB01DC014150504088F0D1
:102C60008D9181341CF08B350CF4805E659161345C
:102C70001CF06B350CF4605E861B611171F3990BCF
:102C80000895881BFCCF592F482F372F262F660F0A
:102C9000771F881F991F660F771F881F991F620F64
:102CA000731F841F951F660F771F881F991F089534
:102CB0000E949A1608F481E00895E89409C097FBF1
:102CC0003EF490958095709561957F4F8F4F9F4F03
:102CD0009923A9F0F92F96E9BB279395F695879547
:102CE00077956795B795F111F8CFFAF4BB0F11F40A
:102CF00060FF1BC06F5F7F4F8F4F9F4F16C08823B1
:102D000011F096E911C0772321F09EE8872F762FE6
:102D100005C0662371F096E8862F70E060E02AF027
:102D20009A95660F771F881FDAF7880F9695879513
:102D300097F90895990F0008550FAA0BE0E8FEEFE8
:102D400016161706E807F907C0F012161306E4076F
:102D5000F50798F0621B730B840B950B39F40A2668
:102D600061F0232B242B252B21F408950A2609F446
:102D7000A140A6958FEF811D811D08950E94D11657
:102D80000C9445170E94371738F00E943E1720F028
:102D9000952311F00C942E170C94341711240C94D5
:102DA00079170E94561770F3959FC1F3950F50E065
:102DB000551F629FF001729FBB27F00DB11D639FED
:102DC000AA27F00DB11DAA1F649F6627B00DA11D93
:102DD000661F829F2227B00DA11D621F739FB00D39
:102DE000A11D621F839FA00D611D221F749F3327A9
:102DF000A00D611D231F849F600D211D822F762F42
:102E00006A2F11249F5750409AF0F1F088234AF01E
:102E1000EE0FFF1FBB1F661F771F881F915050408A
:102E2000A9F79E3F510580F00C942E170C9479174A
:102E30005F3FE4F3983ED4F3869577956795B79511
:102E4000F795E7959F5FC1F7FE2B880F911D96952B
:102E5000879597F9089599278827089597F99F6787
:102E600080E870E060E008959FEF80EC0895002412
:102E70000A941616170618060906089500240A94DF
:102E800012161306140605060895092E0394000C65
:102E900011F4882352F0BB0F40F4BF2B11F460FFF4
:102EA00004C06F5F7F4F8F4F9F4F089557FD90581D
:102EB000440F551F59F05F3F71F04795880F97FBFE
:102EC000991F61F09F3F79F08795089512161306B8
:102ED0001406551FF2CF4695F1DF08C016161706E7
:102EE0001806991FF1CF869571056105089408951C
:102EF000E894BB2766277727CB0197F908950E94AE
:102F00008A17A59F900DB49F900DA49F800D911DD1
:102F100011240895A29FB001B39FC001A39F700D1B
:102F2000811D1124911DB29F700D811D1124911DD1
:102F300008959F939F770E94241A0F90002042F4D7
:102F40009058A2EA2AED3FE049E450E40E94C217FB
:102F50000C9445175058BB27AA270E94C2170C94FF
:102F600045170E94371738F00E943E1720F039F4B9
:102F70009F3F19F426F40C9434170EF4E095E7FB08
:102F80000C942E17E92F0E94561758F3BA176207B0
:102F900073078407950720F079F4A6F50C94781749
:102FA0000EF4E0950B2EBA2FA02D0B01B901900164
:102FB0000C01CA01A0011124FF27591B99F0593FA8
:102FC00050F4503E68F11A16F040A22F232F342FF0
:102FD0004427585FF3CF469537952795A795F0403E
:102FE0005395C9F77EF41F16BA0B620B730B840B53
:102FF000BAF09150A1F0FF0FBB1F661F771F881F0B
:10300000C2F70EC0BA0F621F731F841F48F4879562
:1030100077956795B795F7959E3F08F0B0CF939554
:10302000880F08F09927EE0F9795879508959F933D
:103030009F77EEE389379E0728F4E4EEF0E00E94E4
:10304000941A0CC00E94241A9058A2EA2AED3FE07C
:1030500049EC5FE30E94C2170E9445170F9007FCDE
:10306000905808950E94371760F080E891E009F4C5
:103070009EEF0E943E1728F040E851E071F45EEFA9
:103080000CC00C9434170C947817E92FE0780E9448
:10309000561740F3092E052AB1F3261737074807BC
:1030A000590738F00E2E07F8E02569F0E025E064B6
:1030B0000AC0EF6307F8009407FADB01B9019D012C
:1030C000DC01CA01AD01EF930E94EE180E94451782
:1030D0000E9475185F91552339F02BED3FE049E4CC
:1030E00050FD49EC0C94AB170895DF93DD27B92F01
:1030F000BF7740E85FE31616170648075B0718F42A
:10310000D92F0E94041B9F938F937F936F930E94EC
:10311000961CE8EFF0E00E946D1A0E9445172F916F
:103120003F914F915F910E94D116DD2351F090584D
:10313000A2EA2AED3FE049EC5FE3D0785D270E94E8
:10314000C217DF910C9445170E94E71A90F09F3741
:1031500048F4911116F40C94791760E070E080E85F
:103160009FE3089526F01B16611D711D811D0C94AF
:10317000441A0C945F1A90680E9451194FEF5FEF48
:103180000E94101B9F938F937F936F9342E050E0B8
:103190000E94101B0E94041B2F913F914F915F9141
:1031A0000C94AB170E94AA1AE3950C94D31A0E94B0
:1031B000EB180C9445170E943E1758F00E943717E1
:1031C00040F029F45F3F29F00C942E1751110C9414
:1031D00079170C9434170E94561768F39923B1F3AA
:1031E000552391F3951B550BBB27AA27621773072D
:1031F000840738F09F5F5F4F220F331F441FAA1FC1
:10320000A9F335D00E2E3AF0E0E832D0915050407C
:10321000E695001CCAF72BD0FE2F29D0660F771F2A
:10322000881FBB1F261737074807AB07B0E809F010
:10323000BB0B802DBF01FF2793585F4F3AF09E3F95
:10324000510578F00C942E170C9479175F3FE4F336
:10325000983ED4F3869577956795B795F7959F5FD8
:10326000C9F7880F911D9695879597F90895E1E024
:10327000660F771F881FBB1F621773078407BA0783
:1032800020F0621B730B840BBA0BEE1F88F7E095DE
:10329000089529F416F00C942E170C9478170C94BA
:1032A00034170E945E17A8F39638A0F707F80F921C
:1032B000E8942BE33AEA48EB5FE70E94D4160F92BA
:1032C0000F920F924DB75EB70F920E949E1BE5E2E0
:1032D000F1E00E946D1A4F915F91EF91FF91E5959A
:1032E000EE1FFF1F49F0FE57E0684427EE0F441F12
:1032F000FA95E1F74195550B0E94101B0F9007FEC0
:103300000C94041B08950E948A196894B1110C94BE
:10331000791708950E945E1788F09F5798F0B92F8B
:103320009927B751B0F0E1F0660F771F881F991FFA
:103330001AF0BA95C9F714C0B13091F00E9478170D
:10334000B1E008950C947817672F782F8827B85F1D
:1033500039F0B93FCCF3869577956795B395D9F752
:103360003EF490958095709561957F4F8F4F9F4F5C
:1033700008950E94E71A90F09F3748F4911116F0D3
:103380000C94791760E070E080E89FEB089526F4D4
:103390001B16611D711D811D0C94441A0C945F1A3B
:1033A0000E94371720F019F00E943E1750F40C9439
:1033B00034170C947917E92F0E94561788F3552378
:1033C000B1F3E7FB6217730784079507A8F189F348
:1033D000E92FFF2788232AF03197660F771F881F70
:1033E000DAF7952F5527442332F091505040220FA1
:1033F000331F441FD2F7BB27E91BF50B621B730B6E
:10340000840BB109B1F222F4620F731F841FB11D46
:1034100031972AF0660F771F881FBB1FEFCF91509F
:10342000504062F041F0882332F0660F771F881F0A
:1034300091505040C1F793950C945F1A86957795FB
:1034400067959F5FD9F7F7CFDF93CF931F930F93C4
:103450008B01EC01EDE4F1E00E946D1A0E9445172A
:103460009801AE018B01EC0160E070E080E89FE321
:103470000E94AA170E94561C9801AE010F911F913D
:10348000CF91DF910C94D116882371F4772321F02A
:103490009850872B762F07C0662311F499270DC00B
:1034A0009051862B70E060E02AF09A95660F771FA6
:1034B000881FDAF7880F9695879597F908959F3FAB
:1034C00031F0915020F4879577956795B795880FDF
:1034D000911D9695879597F90895DF93CF931F9344
:1034E0000F93FF92EF92DF927B018C01689406C0EC
:1034F000DA2EEF010E94D116FE01E894A5912591E4
:10350000359145915591A6F3EF010E94C217FE0136
:103510009701A801DA9469F7DF90EF90FF900F917F
:103520001F91CF91DF9108959F938F937F936F9316
:10353000FF93EF939B01AC010E94BE16EF91FF91A8
:103540000E946D1A2F913F914F915F910C94BE167E
:103550000C9434170E945E17D8F3E894E0E0BB2780
:103560009F57F0F02AED3FE049EC06C0EE0FBB0F8D
:10357000661F771F881F28F0B23A62077307840717
:1035800028F0B25A620B730B840BE3959A9572F78D
:10359000803830F49A95BB0F661F771F881FD2F7CB
:1035A00090480C94611AEF93E0FF07C0A2EA2AED5D
:1035B0003FE049EC5FEB0E94C2170E9445170F9055
:1035C000039401FC9058E5E7F1E00C94941A0E94F2
:1035D0005E17A0F0BEE7B91788F4BB279F3860F4E8
:1035E0001616B11D672F782F8827985FF7CF86951D
:1035F00077956795B11D93959639C8F308950E9404
:103600009A1608F48FEF08959B01AC0160E070E01A
:1036100080E89FE30C94D7180C942E170C945F1A33
:103620000E945E17D8F39923C9F3940F511DA3F399
:103630009150504094F059F0882332F0660F771F74
:10364000881F91505040C1F79E3F51052CF7880FBD
:10365000911D9695879597F908955F3FACF0983E38
:103660009CF0BB27869577956795B79508F4B16070
:103670009395C1F7BB0F58F711F460FFE8CF6F5F68
:103680007F4F8F4F9F4FE3CF0C9479170E94561BAB
:1036900029ED3BE54EED5EE30C94BE1616F00C945E
:1036A0005F1A0C94341768940C942E170E945E17BE
:1036B000A8F39923C1F3AEF3DF93CF931F930F9336
:1036C000FF92C92FDD2788232AF02197660F771FE5
:1036D000881FDAF720E030E040E85FEB9FE38839AD
:1036E00020F0803E38F021968F770E94AB17E3E9F7
:1036F000F1E004C00E94AB17E0ECF1E00E946D1A0B
:103700008B01BE01EC01FB2E6F5771097595771F78
:10371000880B990B0E945F1628E132E741E35FE3D3
:103720000E94D116AF2D9801AE01FF900F911F910D
:10373000CF91DF910E94C2170C944517FA01DC016A
:10374000AA0FBB1F9B01AC01BF5728F422273327C8
:103750004427507820C0B75190F4AB2F00244695F1
:1037600037952795011CA395D2F3002071F0220F05
:10377000331F441FB395DAF30ED00C94AA176130AF
:103780007105A0E88A07B94630F49B01AC016627B1
:10379000772788279078309621F0208331834283E1
:1037A00053830895FA01EE0FFF1F3096210531056E
:1037B000A1F16115710561F48038BFE39B0749F100
:1037C00068949038810561F08038BFEF9B0741F025
:1037D00099234AF5FF3FE1053105210519F1E894E8
:1037E0000894E795D901AA2329F4AB2FBE2FF85FDF
:1037F000D0F310C0FF5F70F4A695E0F7F73950F0F2
:1038000019F0FF3A38F49F779F930DD00F9007FC83
:103810009058089546F00C94341760E070E080E80A
:103820009FE308954FE79F775F934F933F932F93C5
:103830000E94561B2F913F914F915F910E94BE169F
:103840000C9451199F939F77FEE3803A9F0728F4C9
:10385000EDEEF1E00E94941A17C090680E94511991
:103860004FEF5FEF0E94101B9F938F937F936F9397
:1038700042E050E00E94101B0E94041B2F913F91D8
:103880004F915F910E94AA170F9007FC90680895CE
:103890009F930E94AA1A0F9007FCEE5F0C94D31A14
:1038A00019F416F40C9434170C945F1A0E945E17E6
:1038B000B8F39923C9F3B6F39F57550B87FF0E94BE
:1038C000F31C0024A0E640EA900180585695979595
:1038D00028F4805C660F771F881F20F026173707B3
:1038E000480730F4621B730B840B202931294A2BC3
:1038F000A69517940794202531254A2758F7660F77
:10390000771F881F20F026173707480730F4620B0F
:10391000730B840B200D311D411DA09581F7B9015A
:10392000842F9158880F9695879508959B01AC0137
:103930000C94BE169F939F77FEE380319F0728F477
:10394000ECEFF1E00E94941A25C0906841E050E04D
:103950000E94101B0E9451199F938F937F936F9326
:1039600020E030E040E85FE30E94AB172F913F91E9
:103970004F915F919F938F937F936F9360E070E07F
:1039800080E89FE30E94AA172F913F914F915F918A
:103990000E94D7180F9007FC90580895DF93D92FF5
:1039A0000E94AA1AE695D7952AED3FE049E45FE325
:1039B000B33A6207730784079507D7953AF0A2EAEE
:1039C00049EC90680E94C2170E944517EBE0F2E0B4
:1039D0000E94941ADD0F13F00E94041BDD0F0BF4FC
:1039E0009058DF91089591505040660F771F881FBF
:1039F000D2F70895DB018F939F930E947F17BF91A9
:103A0000AF91A29F800D911DA39F900DB29F900D2D
:103A100011240895A1E21A2EAA1BBB1BFD010DC0A3
:103A2000AA1FBB1FEE1FFF1FA217B307E407F5076E
:103A300020F0A21BB30BE40BF50B661F771F881F4A
:103A4000991F1A9469F760957095809590959B01E0
:103A5000AC01BD01CF010895EE0FFF1F881F8BBF82
:103A60000790F691E02D1994E894DF93CF93FC0131
:103A7000DB010E948A177F936F93E9019A01AC01E1
:103A8000BF93AF933F932F93DF010E948A1726F4D1
:103A90006C1B7D0B820B930B9E01EB01FC010E94C2
:103AA0007C1DAF91BF912F913F910E947C1DBE0163
:103AB000CF01F9012F913F91CF91DF91089597FDAB
:103AC0001094002E083098F00850232F342F452FE3
:103AD000562F672F782F892F912DF4CF1594979516
:103AE00087957795679557954795379527950A95C3
:103AF000AAF71124002D08950E948A17460F571F18
:103B0000C81FD91F08F4319608950F931F93CF93C0
:103B1000DF938230910510F482E090E0E091E904B7
:103B2000F091EA0430E020E0B0E0A0E0309799F4B2
:103B30002115310509F44AC0281B390B2430310501
:103B4000D8F58A819B816115710589F1FB01938309
:103B50008283FE0111C04081518102811381481787
:103B60005907E0F04817590799F4109761F0129639
:103B70000C93129713961C933296CF01DF91CF913D
:103B80001F910F9108950093E9041093EA04F4CF74
:103B90002115310551F04217530738F0A901DB0117
:103BA0009A01BD01DF01F801C1CFEF01F9CF909378
:103BB000EA048093E904CDCFFE01E20FF31F819365
:103BC00091932250310939832883D7CF2091E7047C
:103BD0003091E804232B41F420910202309103023A
:103BE0003093E8042093E704209100023091010211
:103BF0002115310541F42DB73EB740910402509193
:103C00000502241B350BE091E704F091E804E2176C
:103C1000F307A0F42E1B3F0B2817390778F0AC01EF
:103C20004E5F5F4F2417350748F04E0F5F1F5093CC
:103C3000E8044093E704819391939FCFF0E0E0E0A4
:103C40009CCFCF93DF930097E9F0FC01329713826A
:103C50001282A091E904B091EA04ED0130E020E085
:103C60001097A1F420813181820F931F2091E704E6
:103C70003091E8042817390709F061C0F093E8048F
:103C8000E093E704DF91CF910895EA01CE17DF07B3
:103C9000E8F54A815B819E0141155105B1F7E901C3
:103CA000FB83EA8349915991C40FD51FEC17FD0797
:103CB00061F4808191810296840F951FE9019983B7
:103CC0008883828193819B838A83F0E0E0E012966F
:103CD0008D919C9113970097B9F52D913C91119777
:103CE000CD010296820F931F2091E7043091E804E2
:103CF0002817390739F6309751F51092EA041092D7
:103D0000E904B093E804A093E704BCCFD383C28353
:103D100040815181840F951FC817D90761F44E5F08
:103D20005F4F88819981480F591F518340838A8151
:103D30009B81938382832115310509F0B0CFF093E5
:103D4000EA04E093E9049ECFFD01DC01C0CF1382B9
:103D50001282D7CF4F925F926F927F928F929F92F3
:103D6000AF92BF92CF92DF92EF92FF920F931F9389
:103D7000CF93DF938C01009799F4CB01DF91CF9122
:103D80001F910F91FF90EF90DF90CF90BF90AF9079
:103D90009F908F907F906F905F904F900C94851DB7
:103DA000FC01E60FF71F9C0122503109E217F307CF
:103DB00008F4AEC0D901CD91DC911197C617D70791
:103DC00020F1C530D10578F0CE010497861797070A
:103DD00050F0C61BD70B2297C193D1936D937C9360
:103DE000CF010E94211EC801DF91CF911F910F9139
:103DF000FF90EF90DF90CF90BF90AF909F908F900B
:103E00007F906F905F904F9008955B01AC1ABD0A50
:103E10004C018C0E9D1EA091E904B091EA04512C36
:103E2000412CF12CE12C109731F58091E704909111
:103E3000E8048815990509F05CC04616570608F095
:103E400058C08091000290910102009741F48DB713
:103E50009EB74091040250910502841B950BE81710
:103E6000F90708F055C0F093E804E093E704F9017E
:103E700071836083B8CF8D919C91119712966C904D
:103E8000129713967C901397A815B90559F56C01F4
:103E900042E0C40ED11CCA14DB0420F1AC014A1963
:103EA0005B09DA011296159780F062827382518362
:103EB0004083D9016D937C93E114F10471F0D70133
:103EC0001396FC93EE9312978ECF22968C0F9D1F24
:103ED000F90191838083F301EFCFF093EA04E0933B
:103EE000E90481CF4816590608F42C017D01D3015D
:103EF0009ACFCB010E94851D7C01009749F0AE014D
:103F0000B8010E94961FC8010E94211E87016BCF35
:103F100010E000E068CF85FD0C942B1780629111B2
:103F20000C942B1781568A51D8F70895FB01DC01B8
:103F300002C001900D9241505040D8F70895DC0125
:103F400001C06D9341505040E0F70895FC0181910C
:103F5000861721F08823D9F7992708953197CF0143
:103F60000895FB01DC018D91019080190110D9F3B6
:103F7000990B0895FB01DC0101900D920020E1F7FF
:103F80000895FB01DC014150504030F08D910190CB
:103F9000801919F40020B9F7881B990B0895FB01CB
:103FA000DC014150504048F001900D920020C9F7CB
:103FB00001C01D9241505040E0F7089512E0C5E65F
:103FC000D2E000E006C0802FFE010E942C1D219649
:103FD000011DC636D10780E00807A9F7F894FFCF86
:103FE0000000EB04800033030909290000003703B7
:103FF0009917290000003C0317182900000041030D
:10400000751829000000460345182A0000004C03DB
:10401000A418290000003803D21829000000510319
:10402000BB18290000005603D70A280000005803D7
:104030005119290000005C03190A290000006003DF
:10404000B919290000006603561B29000000690306
:10405000461B290000006D03461B29000000730366
:10406000E10A29000000780321092A0000007C03EE
:10407000B60A2A0000008003DC0A2800000083033F
:10408000D21B2A0000003D03481C290000008703C2
:10409000221C290000008C03561C2900000042034A
:1040A000CE1C2900000091039A1C2900000000008A
:1040B00000000000000000000000A704C703F40394
:1040C000F4046504030457040D0A00457870726512
:1040D0007373696F6E3A2000526573756C743A2081
:1040E00000436F727265637420416E73776572214D
:1040F0000057726F6E6720416E737765722120439F
:104100006F727265637420416E7377657220697394
:10411000203D006162730061636F73006173696EBB
:10412000006174616E006174616E32006365696C78
:1041300000636F73680065006578700066616300F6
:10414000666C6F6F72006C6E006C6F67006C6F67EF
:104150003130006C6F6732006E6372006E707200F7
:10416000706900706F770073696E680073717274A4
:064170000074616E68009E
:020000040003F7
:10E000000D9489F10D94B2F10D94B2F10D94B2F129
:10E010000D94B2F10D94B2F10D94B2F10D94B2F1F0
:10E020000D94B2F10D94B2F10D94B2F10D94B2F1E0
:10E030000D94B2F10D94B2F10D94B2F10D94B2F1D0
:10E040000D94B2F10D94B2F10D94B2F10D94B2F1C0
:10E050000D94B2F10D94B2F10D94B2F10D94B2F1B0
:10E060000D94B2F10D94B2F10D94B2F10D94B2F1A0
:10E070000D94B2F10D94B2F10D94B2F10D94B2F190
:10E080000D94B2F10D94B2F10D94B2F10D94B2F180
:10E090000D94B2F10D94B2F10D94B2F10D94B2F170
:10E0A0000D94B2F10D94B2F10D94B2F10D94B2F160
:10E0B0000D94B2F10D94B2F10D94B2F10D94B2F150
:10E0C0000D94B2F10D94B2F10D94B2F10D94B2F140
:10E0D0000D94B2F10D94B2F10D94B2F10D94B2F130
:10E0E0000D94B2F141546D656761323536300041AF
:10E0F000726475696E6F206578706C6F72657220DE
:10E1000073746B3530305632206279204D4C530099
:10E11000426F6F746C6F616465723E004875683F52
:10E1200000436F6D70696C6564206F6E203D200048
:10E130004350552054797065202020203D20005FF9
:10E140005F4156525F415243485F5F3D2000415658
:10E1500052204C696243205665723D20004743437C
:10E160002056657273696F6E203D20004350552024
:10E1700049442020202020203D20004C6F7720663D
:10E18000757365202020203D20004869676820665F
:10E190007573652020203D200045787420667573D6
:10E1A00065202020203D20004C6F636B2066757336
:10E1B000652020203D20004D617220203720323024
:10E1C000313300312E362E3800342E332E350056A2
:10E1D00023202020414444522020206F7020636F70
:10E1E00064652020202020696E73747275637469E1
:10E1F0006F6E2061646472202020496E74657272B3
:10E20000757074006E6F20766563746F7200726A49
:10E210006D702020006A6D70200057686174207056
:10E220006F72743A00506F7274206E6F7420737541
:10E2300070706F72746564004D7573742062652030
:10E2400061206C6574746572002000577269747483
:10E25000696E672045450052656164696E672045B7
:10E26000450045452065727220636E743D00504F35
:10E27000525400303D5A65726F2061646472003FF1
:10E280003D43505520737461747300403D454550C3
:10E29000524F4D207465737400423D426C696E6B41
:10E2A000204C454400453D44756D70204545505215
:10E2B0004F4D00463D44756D7020464C415348001B
:10E2C000483D48656C70004C3D4C69737420492F83
:10E2D0004F20506F72747300513D51756974005234
:10E2E0003D44756D702052414D00563D73686F7707
:10E2F00020696E7465727275707420566563746FF0
:10E30000727300593D506F727420626C696E6B00BD
:10E310002A0011241FBECFEFD1E2DEBFCDBF01E046
:10E320000CBF12E0A0E0B2E0EEE1FDEF03E00BBFB6
:10E3300002C007900D92A030B107D9F712E0A0E01B
:10E34000B2E001C01D92AE30B107E1F70F9460F367
:10E350000D948DFE01E20EBF0FEF0DBF11241FBE05
:10E360000D9460F30D9400F020E030E040ED57E0B4
:10E3700005C0FA013197F1F72F5F3F4F2817390792
:10E38000C0F308959C01260F311DC901A0E0B0E043
:10E390002F5F3F4FABBFFC018791882361F08093D3
:10E3A000C6008091C00086FFFCCF8091C0008064D1
:10E3B0008093C000EACF08958DE08093C6008091DD
:10E3C000C00086FFFCCF8091C00080648093C000B5
:10E3D0008AE08093C6008091C00086FFFCCF8091C8
:10E3E000C00080648093C00008950F94C2F10F9420
:10E3F000DCF10895FC019081992359F09093C600B7
:10E400008091C00086FFFCCF8091C0008064809323
:10E41000C0003196992379F70895282F982F929567
:10E420009F70892F805D8A3308F0895F8093C600D2
:10E430008091C00086FFFCCF8091C00080648093F3
:10E44000C000822F8F70982F905D9A3308F0995FEB
:10E450009093C6008091C00086FFFCCF8091C000E1
:10E4600080648093C00008959C01FB01853691056E
:10E470001CF46330710594F0C90164E670E00F94F8
:10E480002EFE605D7F4F6093C6008091C00086FFC6
:10E49000FCCF8091C00080648093C0002B30310598
:10E4A00014F43297B4F0C90164E670E00F942EFEC4
:10E4B0006AE070E00F942EFE605D7F4F6093C600AF
:10E4C0008091C00086FFFCCF8091C0008064809363
:10E4D000C000C9016AE070E00F942EFEC0968093E0
:10E4E000C6008091C00086FFFCCF8091C000806490
:10E4F0008093C00008951F93182F8EE692EE60E07F
:10E500000F94C2F11093C6008091C00086FFFCCF2B
:10E510008091C00080648093C0000F94DCF11F9153
:10E5200008952F923F924F925F926F927F928F92B7
:10E530009F92AF92BF92CF92DF92EF92FF920F9392
:10E540001F93DF93CF93CDB7DEB762970FB6F894E2
:10E55000DEBF0FBECDBF382E622ECA01DB015C01CB
:10E560006D01772420E2222E2E010894411C511CBB
:10E570008BC081E0A81680E0B80681E0C80680E084
:10E58000D80628F0C601AA27BB270F940DF2BB2797
:10E59000AD2D9C2D8B2D0F940DF28A2D0F940DF225
:10E5A0002092C6008091C00086FFFCCF8091C00001
:10E5B00080648093C0009DE29093C6008091C0006B
:10E5C00086FFFCCF8091C00080648093C0002092C1
:10E5D000C6008091C00086FFFCCF8091C00080649F
:10E5E0008093C00019828601750188249924A1E0D6
:10E5F0003A1651F03A1620F0B2E03B1661F409C029
:10E600000BBFF701779007C0C7010F9477FE782EF4
:10E6100002C0F7017080872D0F940DF22092C60082
:10E620008091C00086FFFCCF8091C0008064809301
:10E63000C000872D8052F401EF70F0708F3520F408
:10E64000E40DF51D708204C0E40DF51D8EE280839B
:10E650000894E11CF11C011D111D0894811C911CE2
:10E6600090E18916910409F0C2CF80E190E0A0E02A
:10E67000B0E0A80EB91ECA1EDB1E198AC2010F9493
:10E68000FAF10F94DCF16A94662009F072CF629679
:10E690000FB6F894DEBF0FBECDBFCF91DF911F91B3
:10E6A0000F91FF90EF90DF90CF90BF90AF909F9031
:10E6B0008F907F906F905F904F903F902F90089534
:10E6C0002F923F924F925F926F927F928F929F9282
:10E6D000AF92BF92CF92DF92EF92FF920F931F9370
:10E6E000DF93CF93CDB7DEB7CD53D1400FB6F894BB
:10E6F000DEBF0FBECDBF01E20EBF0FEF0DBF94B75F
:10E70000F894A89514BE80916000886180936000A1
:10E7100010926000789493FF05C0E0910002F091A0
:10E7200001021995279A2F9A8091C00082608093E8
:10E73000C00080E18093C40088E18093C1000000A4
:10E74000EE24FF24870144E0A42EB12CCC24DD2448
:10E7500024C0C5010197F1F70894E11CF11C011DCB
:10E76000111D21E2E2162EE4F20620E0020720E06D
:10E77000120718F031E0C32ED12CC801B70127ECE5
:10E780003BE140E050E00F9441FE611571058105C9
:10E79000910519F485B1805885B98091C00087FD35
:10E7A00003C0C114D104A9F2A6014F5F5F4FC25E3E
:10E7B000DE4F59834883CE51D140C25EDE4F8881FF
:10E7C0009981CE51D140019711F00D9410FEC05D9A
:10E7D000DE4F19821882C053D14060E0C15DDE4F28
:10E7E0001882CF52D14088249924C35DDE4F19820C
:10E7F0001882CD52D140C05EDE4F188219821A8233
:10E800001B82C052D140CE5CDE4F188219821A8220
:10E810001B82C253D140EE24FF2487010BBFF701B6
:10E8200007911691C45CDE4F19830883CC53D14005
:10E830000D940BFEC25EDE4F28813981CE51D1404E
:10E840002130310509F52091C600C25EDE4F1982E4
:10E850001882CE51D14022C02F5F3F4F4F4F5F4FA4
:10E86000213082E138078AE7480780E0580780F0C6
:10E87000C45CDE4FE881F981CC53D140EF5FFF4F9C
:10E8800019F0EE27FF27099420E030E040E050E047
:10E890008091C00087FFE0CF2091C600C35DDE4FAE
:10E8A00048815981CD52D1404F5F5F4FC35DDE4FEC
:10E8B00059834883CD52D140213209F063C64A3092
:10E8C000510508F05FC60894811C911C53E0851621
:10E8D000910409F059C600E010E018C081E280936D
:10E8E000C6008091C00086FFFCCF8091C00080648C
:10E8F0008093C0002F5F3F4F2931310579F70F9486
:10E90000DCF10F5F1F4F0530110519F020E030E0FA
:10E91000E5CF10920A0210920B0210920C02109294
:10E920000D02109206021092070210920802109235
:10E930000902109202021092030210920402109235
:10E9400005028FEE90EE60E00F94F5F180E191EE1C
:10E9500060E00F94C2F18091C00087FFFCCF9091DE
:10E96000C600903608F09F759032B8F09093C600BC
:10E970008091C00086FFFCCF8091C00080648093AE
:10E98000C000A0E2A093C6008091C00086FFFCCF2B
:10E990008091C00080648093C000983409F4D7C18E
:10E9A0009934B8F4923409F459C1933458F490333B
:10E9B00019F1903308F4E3C59F33A1F1903409F0C5
:10E9C000DEC5BDC0953409F470C1963409F0D7C5D1
:10E9D00098C1923509F42BC2933538F49C3409F46C
:10E9E000F5C1913509F0CBC518C2963509F445C279
:10E9F000993509F0C4C567C483E792EE62E00F94CD
:10EA0000F5F110920602109207021092080210927D
:10EA1000090210920A0210920B0210920C0210923C
:10EA20000D0213C18FE792EE62E00F94F5F18FEEC5
:10EA300090EE60E00F94F5F181E291EE60E00F94CA
:10EA4000C2F187EB91EE60E00F94F5F180E391EE77
:10EA500060E00F94C2F184EE90EE60E00F94F5F167
:10EA60008FE391EE60E00F94C2F186E090E061E008
:10EA700070E00F9434F20F94DCF18DE591EE60E0DC
:10EA80000F94C2F189EC91EE60E00F94F5F18EE401
:10EA900091EE60E00F94C2F183EC91EE60E00F9490
:10EAA000F5F18CE691EE60E00F94C2F18EE10F94E7
:10EAB0000DF288E90F940DF281E00F940DF20F949E
:10EAC000DCF18BE791EE60E00F94C2F119E0E0E039
:10EAD000F0E010935700E4918E2F0F940DF20F94F5
:10EAE000DCF18AE891EE60E00F94C2F1E3E0F0E03F
:10EAF00010935700E4918E2F0F940DF20F94DCF1D8
:10EB000089E991EE60E00F94C2F1E2E0F0E0109349
:10EB10005700E4918E2F0F940DF20F94DCF188EAE8
:10EB200091EE60E00F94C2F1E1E0F0E01093570045
:10EB30001491812F0F940DF20F94DCF107CF8BE825
:10EB400092EE62E00F94F5F18BE492EE60E00F94A8
:10EB5000F5F10F94DCF100E010E019C0C8016F2D51
:10EB60000F947FFEFF2031F489E492EE60E00F9471
:10EB7000C2F10BC0F092C6008091C00086FFFCCFAE
:10EB80008091C00080648093C0000F5F1F4FC80158
:10EB900081519F41A0E0B0E0ABBFFC01F790BAE229
:10EBA000FB1621F0E2E000301E07C1F60F94DCF105
:10EBB0000F94DCF187E592EE60E00F94F5F10F948D
:10EBC000DCF1CC24DD2400E010E01EC0C8010F946D
:10EBD00077FEF82E882331F489E492EE60E00F94FA
:10EBE000C2F10BC08093C6008091C00086FFFCCFAD
:10EBF0008091C00080648093C000FE1419F00894D6
:10EC0000C11CD11C0F5F1F4FC80181519F41A0E063
:10EC1000B0E0ABBFFC01E790FAE2EF1621F022E092
:10EC20000030120799F60F94DCF10F94DCF182E6C4
:10EC300092EE60E00F94C2F1C60161E070E00F94C3
:10EC400034F20F94DCF10F94DCF110920202109276
:10EC50000302109204021092050278CE89E992EE26
:10EC600062E00F94F5F1279A2F9A16C02F9880E052
:10EC700090E0E0EDF7E03197F1F7019684369105E9
:10EC8000C1F72F9A80E090E0E0EDF7E03197F1F7DF
:10EC9000019684369105C1F78091C00087FFE6CFC9
:10ECA0008091C00087FFFCCF64C485EA92EE62E0E9
:10ECB0000F94F5F140910202509103026091040219
:10ECC0007091050281E020E10F9491F2809102029F
:10ECD00090910302A0910402B091050280509F4FD1
:10ECE000AF4FBF4F8093020290930302A0930402A0
:10ECF000B093050280509041A040B04008F426CE69
:10ED0000A4CF83EB92EE62E00F94F5F140910602FE
:10ED100050910702609108027091090280E020E1A1
:10ED20000F9491F28091060290910702A09108023F
:10ED3000B091090280509F4FAF4FBF4F80930602A2
:10ED400090930702A0930802B0930902FFCD80ECD4
:10ED500092EE62E00F94F5F183E792EE60E00F949B
:10ED6000F5F18FE792EE60E00F94F5F18BE892EE0B
:10ED700060E00F94F5F189E992EE60E00F94F5F10F
:10ED800085EA92EE60E00F94F5F183EB92EE60E09D
:10ED90000F94F5F180EC92EE60E00F94F5F187ECC2
:10EDA00092EE60E00F94F5F188ED92EE60E00F9442
:10EDB000F5F18FED92EE60E00F94F5F18AEE92EEB0
:10EDC00060E00F94F5F183E093EEBDCD87EC92EE19
:10EDD00062E00F94F5F181E40F947BF282E40F94EA
:10EDE0007BF283E40F947BF284E40F947BF285E45E
:10EDF0000F947BF286E40F947BF287E40F947BF20E
:10EE000088E40F947BF28AE40F947BF28BE40F94F6
:10EE10007BF28CE40F947BF299CD88ED92EE62E068
:10EE20000F94F5F1772473948824992409C48FED05
:10EE300092EE62E00F94F5F140910A0250910B02BC
:10EE400060910C0270910D0282E020E10F9491F22A
:10EE500080910A0290910B02A0910C02B0910D02D8
:10EE600080509F4FAF4FBF4F80930A0290930B0289
:10EE7000A0930C02B0930D0269CD8AEE92EE62E08F
:10EE80000F94F5F184EE90EE60E00F94F5F18FECC5
:10EE900091EE60E00F94F5F1662477244301CC5D98
:10EEA000DE4F19821882C452D140D401C301B695F5
:10EEB000A79597958795CA5DDE4F88839983AA8326
:10EEC000BB83C652D140CC5DDE4FA881B981C4520C
:10EED000D1401196CC5DDE4FB983A883C452D14096
:10EEE000CD0162E070E00F9434F2B0E2B093C6005E
:10EEF0008091C00086FFFCCF8091C0008064809329
:10EF0000C000EDE2E093C6008091C00086FFFCCF18
:10EF10008091C00080648093C000F0E2F093C6004E
:10EF20008091C00086FFFCCF8091C00080648093F8
:10EF3000C000CA5DDE4FE880F9800A811B81C6529D
:10EF4000D140BB27A12F902F8F2D0F940DF2CA5DBA
:10EF5000DE4F8881C652D1400F940DF2B0E2FB2EF5
:10EF6000F092C6008091C00086FFFCCF8091C00067
:10EF700080648093C0000DE30093C6008091C000C0
:10EF800086FFFCCF8091C00080648093C00010E2B7
:10EF90001093C6008091C00086FFFCCF8091C00016
:10EFA00080648093C0008BBEF3012791C65DDE4F65
:10EFB0002883CA52D140A22EBB24CC24DD2408943D
:10EFC000611C711C811C911C8BBEF3018791282E42
:10EFD0003324442455240894611C711C811C911C09
:10EFE0008BBEF3013791C55DDE4F3883CB52D140E4
:10EFF0000894611C711C811C911C8BBEF30147910C
:10F00000C45DDE4F4883CC52D140ADEFEA2EAFEF66
:10F01000FA2EAFEF0A2FAFEF1A2F6E0C7F1C801E57
:10F02000911E142D032DF22CEE24EA0CFB1C0C1D5A
:10F030001D1D0F940DF220E22093C6008091C000A8
:10F0400086FFFCCF8091C00080648093C000C65DC5
:10F05000DE4F8881CA52D1400F940DF230E23093D6
:10F06000C6008091C00086FFFCCF8091C000806404
:10F070008093C000C45DDE4F8881CC52D1400F9494
:10F080000DF240E24093C6008091C00086FFFCCFA5
:10F090008091C00080648093C000C55DDE4F888190
:10F0A000CB52D1400F940DF250E25093C6008091A4
:10F0B000C00086FFFCCF8091C00080648093C000B8
:10F0C0008FEFE8168FEFF80680E0080780E018075A
:10F0D00031F484E092EE60E00F94C2F1DFC0D80119
:10F0E000C7018070907CA070B0708050904CA040A0
:10F0F000B040D1F52FEF3FE340E050E0E222F322B1
:10F1000004231523CA5DDE4FA880B980CA80DB8046
:10F11000C652D140AE0CBF1CC01ED11EAA0CBB1CD7
:10F12000CC1CDD1C8EE092EE60E00F94C2F1BB2798
:10F13000A12F902F8F2D0F940DF28E2D0F940DF285
:10F1400030E23093C6008091C00086FFFCCF8091F2
:10F15000C00080648093C0004EE34093C60080915D
:10F16000C00086FFFCCF87C08EE09EEFA0E0B0E03D
:10F17000E822F9220A231B239CE0E91694E9F90608
:10F1800090E0090790E0190709F088C0C45DDE4FE0
:10F19000A881CC52D140EA2EFF2400E010E0102FCD
:10F1A0000F2DFE2CEE24C55DDE4FB881CB52D14031
:10F1B000EB0EF11C011D111DD601C501817090706F
:10F1C000A070B070DC0199278827E80EF91E0A1F8D
:10F1D0001B1F20EF30E040E050E0A222B322C42207
:10F1E000D52241E1AA0CBB1CCC1CDD1C4A95D1F7F1
:10F1F000EA0CFB1C0C1D1D1D81E090E0A0E0B0E0BE
:10F20000282239224A225B2235E1220C331C441C7D
:10F21000551C3A95D1F7E20CF31C041D151D57013E
:10F220006801AA0CBB1CCC1CDD1C85E192EE60E0E1
:10F230000F94C2F1C801AA27BB270F940DF2BB2778
:10F24000A12F902F8F2D0F940DF28E2D0F940DF274
:10F2500090E29093C6008091C00086FFFCCF809121
:10F26000C00080648093C000AEE3A093C60080918C
:10F27000C00086FFFCCF8091C00080648093C000F6
:10F28000C601AA27BB270F940DF2BB27AD2D9C2DDD
:10F290008B2D0F940DF28A2D0F940DF20F94DCF14B
:10F2A000CC5DDE4FE881F981C452D140F99709F471
:10F2B0004DCBF4E0EF2EF12C012D112D6E0C7F1CA7
:10F2C000801E911EF2CD83E093EE62E00F94F5F183
:10F2D0008AE192EE60E00F94C2F18091C00087FF56
:10F2E000FCCF1091C6001F751093C6008091C0001E
:10F2F00086FFFCCF8091C00080648093C0000F9493
:10F30000DCF1812F81548A3108F036C1163409F4BA
:10F3100095C0173490F4133409F44EC0143430F40B
:10F320001134F1F0123409F01DC130C0143409F465
:10F3300059C0153409F016C16BC01A3409F4C4C0A1
:10F340001B3438F4173409F48FC0183409F00AC19B
:10F35000A1C01B3409F4D2C01C3409F003C1E8C0B9
:10F360008FEF81B90DC082B1809582B980E090E0C5
:10F37000E0EDF7E03197F1F70196883C9105C1F790
:10F380008091C00087FFEFCF12B8EFC08FEF84B934
:10F390000DC085B1809585B980E090E0E0EDF7E0A3
:10F3A0003197F1F70196883C9105C1F78091C00033
:10F3B00087FFEFCF15B8D9C08FEF87B90DC088B1DF
:10F3C000809588B980E090E0E0EDF7E03197F1F7C3
:10F3D0000196883C9105C1F78091C00087FFEFCF6F
:10F3E00018B8C3C08FEF8AB90DC08BB180958BB9A7
:10F3F00080E090E0E0EDF7E03197F1F70196883C8E
:10F400009105C1F78091C00087FFEFCF1BB8ADC059
:10F410008FEF8DB90DC08EB180958EB980E090E0F0
:10F42000E0EDF7E03197F1F70196883C9105C1F7DF
:10F430008091C00087FFEFCF1EB897C08FEF80BBD1
:10F440000DC081B3809581BB80E090E0E0EDF7E0F6
:10F450003197F1F70196883C9105C1F78091C00082
:10F4600087FFEFCF11BA81C08FEF83BB0DC084B38C
:10F47000809584BB80E090E0E0EDF7E03197F1F714
:10F480000196883C9105C1F78091C00087FFEFCFBE
:10F4900014BA6BC08FEF809301010FC080910201FD
:10F4A00080958093020180E090E0E0EDF7E03197F5
:10F4B000F1F70196883C9105C1F78091C00087FF64
:10F4C000EDCF1092020151C08FEF809304010FC065
:10F4D0008091050180958093050180E090E0E0ED4A
:10F4E000F7E03197F1F70196883C9105C1F78091DB
:10F4F000C00087FFEDCF1092050137C08FEF8093DA
:10F5000007010FC08091080180958093080180E079
:10F5100090E0E0EDF7E03197F1F70196883C910536
:10F52000C1F78091C00087FFEDCF109208011DC088
:10F530008FEF80930A010FC080910B01809580931B
:10F540000B0180E090E0E0EDF7E03197F1F70196F4
:10F55000883C9105C1F78091C00087FFEDCF1092E4
:10F560000B0103C085E292EEEEC98091C00087FFD7
:10F57000FCCF8091C600EAC988E392EEE4C98CE131
:10F5800091EEE1C988249924933011F1943028F444
:10F59000913089F09230B8F408C0953061F195301F
:10F5A000F0F0963009F048C043C02B3109F042C951
:10F5B00091E06BE13FC96227C15DDE4F2883CF52E6
:10F5C000D14092E037C9B22FA0E0622793E032C960
:10F5D000822F90E0A82BB92B622794E02BC92E3004
:10F5E00009F039C3622795E0C05DDE4F19821882A9
:10F5F000C053D1401FC9E1E0F0E0EC0FFD1FC05D3A
:10F60000DE4F08811981C053D140E00FF11F2083E4
:10F610000F5F1F4FC05DDE4F19830883C053D14079
:10F6200062270A171B0709F005C9D80196E002C92D
:10F63000261709F010C303C0973009F0FBC87724E0
:10F640009981933109F412C19431C8F4963009F4C8
:10F65000D8C0973050F4923009F406C1933009F4C1
:10F660006DC0913009F059C253C0913109F477C08F
:10F67000923108F0BBC0903109F04FC2F5C098310B
:10F6800009F487C0993150F4953109F4EFC09531F0
:10F6900008F4C6C1963109F040C2C2C19A3109F4DA
:10F6A0006CC09A3108F491C09B3109F45BC09D3164
:10F6B00009F033C29D81903359F48F81882311F46E
:10F6C0009EE11CC0813011F091E018C098E916C08D
:10F6D000892F807591F0903539F4E0E0F0E089E011
:10F6E0008093570094910AC0983539F4E3E0F0E034
:10F6F00089E080935700949101C090E01A821B82A8
:10F700008D818C831D829E831F8227E030E009C299
:10F710001A8288E08B8381E48C8386E58D8382E581
:10F720008E8389E48F8383E5888780E589878FE5E9
:10F730008A8782E38B872BE030E0F3C18A818139AD
:10F7400041F0823941F0803911F48FE005C080E04A
:10F7500003C082E001C08AE01A828B8344C0772410
:10F76000739482C08D81882311F48EE12CC0813086
:10F7700011F081E028C088E926C01A82E1E0F0E0BB
:10F7800089E08093570084918B831C8224E030E0D1
:10F79000C8C18B81803589F48C81883039F4E2E0EE
:10F7A000F0E089E08093570084910DC0E0E0F0E044
:10F7B00089E080935700849106C0E3E0F0E089E09F
:10F7C0008093570084911A82DFCF8D81836C99E0FA
:10F7D000E1E0F0E0082E90935700E89507B600FCB2
:10F7E000FDCF1A821B8223E030E09BC180EC8A832C
:10F7F000CE5CDE4F188219821A821B82C253D1401E
:10F800008EC18A8190E0A0E0B0E0582F44273327D2
:10F8100022278B8190E0A0E0B0E0DC0199278827C7
:10F82000282B392B4A2B5B2B8D8190E0A0E0B0E098
:10F83000282B392B4A2B5B2B8C8190E0A0E0B0E089
:10F84000BA2FA92F982F8827282B392B4A2B5B2BCF
:10F85000220F331F441F551FC05EDE4F288339839C
:10F860004A835B83C052D1401A8259C13A81C95C34
:10F87000DE4F3883C753D140CA5CDE4F1882C6536F
:10F88000D1408B81C82EDD24CA5CDE4F488159816E
:10F89000C653D140C42AD52A933109F082C0CE5C28
:10F8A000DE4F88819981AA81BB81C253D1408050AB
:10F8B000904CA340B04030F583E0CE5CDE4FE88052
:10F8C000F9800A811B81C253D140F70100935B008C
:10F8D00080935700E89507B600FCFDCFCE5CDE4F65
:10F8E000088119812A813B81C253D14000501F4FAA
:10F8F0002F4F3F4FCE5CDE4F088319832A833B8313
:10F90000C253D140C05EDE4F488159816A817B81FC
:10F91000C052D140DE011B9631E08C9111962C91A2
:10F9200011971296C75CDE4F2883C953D140C85C3B
:10F93000DE4F1882C853D14090E0C85CDE4FE881AA
:10F94000F981C853D1408E2B9F2B0C01FA01609393
:10F950005B0030935700E89511244E5F5F4F6F4F67
